:100000000C944B030C9473030C9473030C947303C0
:100010000C9473030C9473030C9473030C94730388
:100020000C9473030C9473030C9473030C94730378
:100030000C94331D0C9473030C94061E0C94B71E81
:100040000C9473030C9473030C9473030C94730358
:100050000C9473030C9473030C9473030C94730348
:100060000C9473030C9473030C94BD1D0C94971D96
:100070000C9473030C9473030C9473030C94730328
:100080000C9473030C9473030C9473030C94730318
:100090000C9473030C9473030C9473030C94730308
:1000A000207E0102000000000000000000000000AF
:1000B00000000000F0000000000000003F00000011
:1000C00000000000F0F00000000000003F3F0000D2
:1000D000000000000080F080F080000000043F0479
:1000E0003F040000F0F0F0F0000000003F3F3F3F11
:1000F00000000000F0F0F0F0F00000003F3F3F3F54
:100100003F000000F0F0F0F0F0F000003F3F3F3F14
:100110003F3F0000F0F0F0F0F0F0F0003F3F3F3FD5
:100120003F3F3F00000080601008000000000F30DB
:100130004080000000081060800000000080403017
:100140000F000000008000C0008000000008051FB4
:1001500005080000000000C0000000000002021FAF
:10016000020200000000000000000000000090708B
:100170000000000000000000000000000002020279
:1001800002020000000000000000000000002070DB
:10019000200000000000008060180000C0300C0348
:1001A00000000000C020101020C000000F10202010
:1001B000100F0000004020F0000000000020203F51
:1001C000202000006010101010E0000020302824D3
:1001D0002320000010101090503000001820212122
:1001E000211E00000000C020F00000000C0B0808D9
:1001F0003F080000F09090909010000019202020FF
:10020000201F0000C0201010100000001F2221211C
:10021000211E000010101010D030000000300C0320
:100220000000000060901010906000001C2221214E
:10023000221C0000E010101010E000001922222201
:10024000110F0000000080C0800000000000103985
:10025000100000000000808000000000000049390C
:10026000000000000000008040200000000205089F
:10027000102000008080808080800000040404043E
:1002800004040000F0E0C080000000007F3F1F0F6A
:10029000070200006010101090600000000000379E
:1002A00000000000C020905050E000000F102728F0
:1002B000282F0000C020101020C000003F020202C2
:1002C000023F0000F0101010A04000003F2121214B
:1002D000120C0000E0101010106000001F20202001
:1002E00020180000F010101020C000003F20202037
:1002F000100F0000F0101010101000003F212121FD
:1003000020200000F0101010101000003F0101012B
:1003100000000000E0101010106000001F202022DC
:10032000123E0000F000000000F000003F0101015B
:10033000013F0000001010F0101000000020203FCE
:100340002020000000000010F010000018202020E5
:100350001F000000F0008040201000003F01020458
:1003600008300000F0000000000000003F202020C6
:1003700020200000F060808060F000003F0001015C
:10038000003F0000F0C0000000F000003F0001024C
:100390000C3F0000E010101010E000001F20202093
:1003A000201F0000F010101010E000003F020202B9
:1003B00002010000E010101010E000001F242428AB
:1003C000709F0000F010101010E000003F020206C5
:1003D0000A310000E01010101060000018212122E6
:1003E000221C0000101010F0101010000000003F40
:1003F00000000000F000000000F000001F2020209E
:10040000201F0000F000000000F000000007383856
:100410000700000000F0000000F00000001F201C9A
:10042000201F000030C00000C0300000300C03036B
:100430000C30000000708000807000000000013E61
:10044000010000001010109050300000302C2221CC
:10045000202000000000F808080800000000FF80CD
:100460008080000018608000000000000000030C85
:1004700030C0000000080808F800000000808080FC
:10048000FF000000201008081020000000000000FD
:10049000000000000000000000000000808080805C
:1004A0008080000000000810200000000000000014
:1004B00000000000008080808000000019242424B7
:1004C000243F0000F0008080800000003F112020C9
:1004D000201F000000808080800000001F2020205E
:1004E000201100000080808000F000001F202020EC
:1004F000113F000000808080800000001F24242421
:10050000241700000000E0101020000001013F014E
:100510000100000000808080008000006798A8A88B
:10052000A7400000F0008080800000003F01000034
:10053000003F0000000080B0000000000020203FCD
:10054000202000000000000080B0000000608080DB
:10055000807F0000F0000000800000003F040609DA
:1005600010200000000010F0000000000020203FDC
:10057000202000000080800080000000003F001F5D
:10058000003F000080008080800000003F010000EC
:10059000003F000000808080800000001F2020209D
:1005A000201F00008000808080000000FF112020BC
:1005B000201F000000808080008000001F2020207D
:1005C00011FF000080008080800000003F010000DB
:1005D000000300000080808080000000112224249D
:1005E000281100008080F0808000000000001F20A3
:1005F0002010000080000000008000001F2020204C
:10060000103F0000008000000080000000030C305C
:100610000C0300000080000000800000001F201E6E
:10062000201F00008000000000800000310A040448
:100630000A31000080000000008000004F90909080
:10064000887F0000808080808080000020302C2205
:1006500021200000000000F0080800000000027DDA
:1006600080800000000000F800000000000000FF93
:1006700000000000000808F0000000000080807DFD
:100680000200000030081020403000000000000090
:1006900000000000E01F11241FBECFEFCDBFDFE33D
:1006A000DEBF18E2A0E0B8E2E1E8F8E602C005909B
:1006B0000D92AE30B107D9F72BE2AEE0B8E201C03F
:1006C0001D92AB3DB207E1F713E0CBE4D3E004C0E9
:1006D0002197FE010E94DC2ECA34D107C9F70E947F
:1006E0009E210C9409330C94000080E00895E09161
:1006F0006A2AF0916B2A309719F085EA9AE20995F7
:100700008091A62A823F09F4BAC090F5803C09F492
:1007100099C0B8F4803909F44FC040F4E0916E2AD2
:10072000F0916F2A803809F44BC00895803A09F49B
:1007300084C0E091742AF091752A803B09F440C08E
:100740000895803E09F462C040F4E091782AF09167
:10075000792A803D09F47AC00895803F09F47DC06C
:10076000E0917E2AF0917F2A813F09F49BC0089591
:100770008A3FC1F1A8F4863F09F499C040F4E091A2
:10078000822AF091832A833F09F48CC00895883F20
:1007900009F1E0918A2AF0918B2A893FF9F00895B6
:1007A0008C3F51F120F18E3F61F1E091922AF0915E
:1007B000932A8F3F99F00895E091702AF091712A61
:1007C000309709F479C04091A82A6091A72A8091B6
:1007D000A52A0994E091862AF091872A309709F496
:1007E0006BC00994E091882AF091892AF7CFE091B3
:1007F0008C2AF0918D2AF2CFE0918E2AF0918F2AE7
:10080000EDCFE091902AF091912AE8CFE0917A2AF9
:10081000F0917B2A309709F44FC06091A82A20E814
:10082000629FB001112460787F738091A72A8F772F
:10083000682B70528091A52A0994E091722AF09158
:10084000732ABECFE091762AF091772A3097A1F1F2
:100850006091A72A8091A52A0994E0917C2AF091C1
:100860007D2A309749F16091A72A7091A82A6138B2
:10087000710510F060E870E089EA9AE20994E0916D
:10088000802AF091812A3097B9F08091A82A20E837
:10089000829FC001112480789F732091A72A2F770F
:1008A000822B0994309741F08091A72A0994E09116
:1008B000842AF091852A92CF08951F93CF93DF93D6
:1008C000CDB7DEB72597CDBFDEBF1C8221E02B83DD
:1008D00089839A83E091D829F091D92911891D82C1
:1008E000A091D829B091D929E091DC29F091DD2996
:1008F0009E012F5F3F4F50964C916FE088ED99E23B
:1009000009958D818F5F8D83811750F32596CDBF1B
:10091000DEBFDF91CF911F9108959B01DC011896F6
:10092000ED91FC9141E067E10994FC01548945890E
:10093000252F30E0842F90E0821B930B541710F08A
:10094000CF96089501970895FC019289838998179D
:1009500061F0A389AE0FBF2FB11D59968C91938979
:100960009F5F9F73938B90E008958FEF9FEF0895A3
:10097000FC0192898389981731F08389E80FF11D72
:10098000818D90E008958FEF9FEF0895FC0192898B
:100990002389892F90E0805C9F4F821B91098F7380
:1009A00099270895CF93DF93EC01E881F9810680C0
:1009B000F781E02D0995EC85FD8586818F7386830F
:1009C000EC85FD8585818F7585838B898A8B198A56
:1009D000DF91CF910895CF93DF93FC0194898589AE
:1009E000C485D585981306C08D818F7D8D83DF9159
:1009F000CF910895A589AE0FBF2FB11DA75ABF4F44
:100A00002C91858990E001968F739927858B80E4DE
:100A10008C83A485B58512962C9394898589981327
:100A2000E6CFA485B58515968C9115978F7D159683
:100A30008C9387898823D9F2808D80931301178A3C
:100A4000D6CFDC011C96ED91FC910FB607FE03C0DA
:100A5000258125FD04C0248125FD0C94EB04089517
:100A6000EF92FF920F931F93CF93DF93EC0181E0FE
:100A7000898B9C898D8998131CC0AC85BD85149683
:100A80008C91149785FF15C012966C93AC85BD852B
:100A900080E414968C93EC85FD8585818F7D85831C
:100AA00081E090E0DF91CF911F910F91FF90EF9047
:100AB00008958091110180FF08C080911301888FF3
:100AC0008E898093130181E08F8BF62E0C8910E0C4
:100AD0000F5F1F4F0F731127E02E8D898E1104C0F9
:100AE000CE010E942105F9CFEC89EC0FFD2FF11DFD
:100AF000E75AFF4FF0820C8BEC85FD858581806283
:100B0000CECFCF93DF93FC0121892223C9F0EC01E2
:100B10008091110180FF08C080911301808F868928
:100B20008093130181E0878BEC85FD85858185FDB0
:100B300003C0848186FD04C0CE010E942105F4CF4C
:100B4000DF91CF910895CF93DF9390E0FC01EC5CAF
:100B5000F84520812F3F69F0FC01E65EF845E08111
:100B600030E2E39FF0011124FC5F6130710521F454
:100B70002183DF91CF91089580509945EC01A881A0
:100B8000AF3F69F0CF014096A80FB92FB11D9FB7B5
:100B9000F89422838C9188608C939FBFEACFB0E059
:100BA000A0E0F5CF282F30E0F901EA51F945E081C6
:100BB000EE2309F1E13021F0F0F0E63098F00895ED
:100BC0004091010A20503945F90120812C5F81E0D4
:100BD00090E001C0880F2A95EAF7809584238093DE
:100BE000010A089580E1E89FF0011124E05AF54FD1
:100BF00081818F7E81830895FF920F931F93CF93FE
:100C0000DF93082F10E0F801EC5CF845F0809FEFCF
:100C1000F916A1F0EB018B3210F40E94D205F80115
:100C2000E65EF845E08180E2E89FF0011124FC5F78
:100C300080818F2179F0209739F4F682DF91CF916E
:100C40001F910F91FF900895229711F4F782F6CF2C
:100C5000F582F4CFD801A050B9458C91309771F04E
:100C60008F3F61F07096E80FF11D9FB7F894808177
:100C7000CD2B39F4877F80839FBFE0CFF0E0E0E0A9
:100C8000F4CF8860F8CF0F931F93CF938B32E8F4A3
:100C9000082F10E0F801EC5CF845C081CF3FA9F0C7
:100CA0000E94D205F801E65EF845E08180E2E89F07
:100CB000F0011124FC5F8085C82381E090E009F4F5
:100CC00080E0CF911F910F91089580E090E0F9CFDF
:100CD0008B3210F40C94FC0508958B3210F40C94B4
:100CE000A3050895CF92DF92EF92FF920F931F9387
:100CF000CF93DF93EC016A017B01022F898988235E
:100D000039F0E881F9810288F389E02DCE01099557
:100D100098898091E205892B8093E2051FB7F894AA
:100D200060E070E281EA97E0A70196010E94932CAF
:100D300069017A018FEFC81AD80AE80AF80AF6940E
:100D4000E794D794C794EC85FD8586818D7F868353
:100D5000EC85FD8586818683198AA09123110A2E50
:100D6000000CBB0BA70196010E948B2C20E034E005
:100D700040E050E00E94612CEC85FD85C20ED31E40
:100D8000E41EF51EC086D186EC85FD850783EC85C3
:100D9000FD858681806C8683EC85FD8585818068F4
:100DA00085838E8562E070E00E946D068F8561E02C
:100DB00070E00E9468068F8561E070E00E946D0619
:100DC0001FBFDF91CF911F910F91FF90EF90DF90A8
:100DD000CF900895CF93DF938FB7F894209178291F
:100DE0003091792940917A2950917B29E0918A0AA2
:100DF0009091860A90FF06C02F5F3F4F4F4F5F4F85
:100E0000E0918A0A8FBFA0917629B0917729C0918D
:100E10007429D09175290E94802CEC9F9001ED9F40
:100E2000300D1124620F731F811D911DDF91CF9131
:100E300008958F929F92AF92BF92CF92DF92EF92DE
:100E4000FF924B015C010E94EA066B017C01A8EE57
:100E5000B3E0A50194010E94802CC60ED71EE81EA7
:100E6000F91EC616D706E806F90618F40E94EA0627
:100E7000F8CF0E94EA066C157D058E059F05C8F324
:100E8000FF90EF90DF90CF90BF90AF909F908F90AA
:100E900008952FB7F894609170297091712980910D
:100EA0007229909173292FBF08950C940000089522
:100EB000662329F06A3019F0862F90E008958FEFAD
:100EC0009FEF0895AF92BF92CF92DF92EF92FF9281
:100ED0000F931F93CF93DF936C017B018B01040F62
:100EE000151FEB015E01AE18BF08C017D10759F0FE
:100EF0006991D601ED91FC910190F081E02DC60140
:100F00000995892B79F7C501DF91CF911F910F9139
:100F1000FF90EF90DF90CF90BF90AF90089581E069
:100F200008950F9391E09093592910925829609356
:100F3000562970935729409355292093542910928C
:100F400053291092522900935129880F80935029D8
:100F500023E030E044E050E080915529882341F0BF
:100F600020934E2930934F29809150298E7F0BC0BA
:100F700080915429882351F040934E2950934F2952
:100F80008091502981608093A70808C080915529DD
:100F9000811104C080915429882311F3809158292C
:100FA0008823E1F3809158298330B1F2809154294C
:100FB000882321F0809152290F910895809158291A
:100FC000823031F0853031F0813031F480E0F4CF7F
:100FD00081E0F2CF83E0F0CF84E0EECFE0EAF8E00A
:100FE00091859066918722E030E020934E293093DE
:100FF0004F298093402910923F29089581E08093E2
:101000003F291092402993E09093AA089091AB0851
:1010100091FF10C010924C29E0913D29F0913E299A
:10102000099580934B2985E090E080934E29909319
:101030004F29089510924D2980934A2986E090E027
:10104000F4CF8F929F92AF92BF92CF92DF92EF92A6
:10105000FF92CF93DF9360342DE0720723E0820785
:10106000910508F454C0611525E372072CE082074E
:10107000910508F445C060387F448241910508F02D
:1010800046C0C8E7D0E020E432E44FE050E0809072
:10109000002890900128A0900228B0900328C50154
:1010A000B4010E94932C69017A018AE0C81AD10820
:1010B000E108F108C501B40120E432E44FE050E05A
:1010C0000E94932CDE010E94802C28EE33E040E049
:1010D00050E00E94932CC21AD30AE40AF50AF6944F
:1010E000E794D794C794C092A608DF91CF91FF9060
:1010F000EF90DF90CF90BF90AF909F908F9008952A
:10110000CCE2D1E020E83AE146E050E0C0CFC8EEC2
:10111000D3E020EA36E841E050E0B9CF60933B29C4
:1011200070933C2908956093392970933A29089562
:10113000E0913B29F0913C29309741F010923829F9
:1011400010923729099580913729089580E00895F4
:10115000E0913929F0913A29309759F030913629A8
:1011600020913529321728F010923629809335299D
:10117000099408950895E091362980913529E8175A
:1011800030F4F0E0EB54F74D808190E008958FEF5C
:101190009FEF089590913629809135292FEF3FEFE9
:1011A000981748F4E92FF0E0EB54F74D208130E038
:1011B0009F5F90933629C9010895809135299091B8
:1011C0003629891B990B0895CF92DF92EF92FF92F7
:1011D0000F931F93CF93DF937C018A01EB016B0187
:1011E000C40ED51ECC15DD0551F06991D701ED91E6
:1011F000FC910190F081E02DC7010995F3CFC80162
:10120000DF91CF911F910F91FF90EF90DF90CF90E2
:1012100008952091372927FF08C021E030E0FC0124
:101220002283338390E080E0089580913829E82F6D
:10123000F0E0EB5CF74D60838F5F809338298093FB
:10124000372981E090E00895DC01ED91FC91008C5C
:10125000F18DE02D61E009940F9380914E299091DA
:101260004F290197A1F480915929811112C0062FAD
:1012700020E04091372965E378E2809134280E948C
:10128000910710923829109237290F91089580E024
:10129000F8CF81E0F6CF609334281092382910926D
:1012A00037290895DC01ED91FC91048CF58DE02D3A
:1012B00021E009940F9385EB98E280934129909364
:1012C000422980914E2990914F290197C9F480912C
:1012D0005929811117C0FA014138510510F0E0E891
:1012E000F0E0022F862F2E2F40E070E060E00E9499
:1012F0009107109236298093352990E00F91089537
:1013000080E0F7CF81E0F5CFCB01BA010C94210842
:10131000E0EAF8E01382168281E085831486118664
:1013200010924E2910924F2908951092362910924A
:101330003529109238291092372980914E299091A1
:101340004F29892BD9F482E090E080934E29909325
:101350004F2910924D2910924C2910923F2910923A
:1013600040291092332810924A29660F6093AC08E6
:1013700081EE8093A90881E08093A30888E998E032
:1013800080933D2990933E2985E398E280934329F9
:101390009093442988EA98E08093482990934929BA
:1013A00085EB98E2809345299093462980E88093C5
:1013B000472908951092362910923529109238291C
:1013C0001092372980914E2990914F29892BF1F461
:1013D0008091E3058093E30581E090E080934E29BE
:1013E00090934F2910925229109253291092592903
:1013F0001092582981EC8093A30860EA76E881E096
:1014000090E00E94210881E08093A5080895DC0106
:101410001A96ED91FC9130E020E00994DC011696DB
:10142000ED91FC9130E020E040E069E10994DC01BD
:101430001696ED91FC9130E020E040E068E10994DF
:101440009A01DC011696ED91FC91462F67E1099413
:10145000EF92FF920F931F93CF93DF931F92CDB71D
:10146000DEB77C018B01D8016C91673129F150F412
:101470006531A0F40F90DF91CF911F910F91FF90F4
:10148000EF9008956A3118F16E3FA1F7F80141819C
:10149000498369E2C7010E94070A0BC0F801418134
:1014A0004983D7011696ED91FC9130E020E0C70109
:1014B00009950E5F1F4FD7CFF80181818983AE0157
:1014C0004F5F5F4F61E0C7010E94200AF2CF0F5FBC
:1014D0001F4FD7011696ED91FC9130E020E040E0DF
:1014E000C7010995C0CF462FDC011696ED91FC91FE
:1014F00030E020E066E10994462FDC011696ED917C
:10150000FC9130E020E065E10994EF92FF920F93A7
:101510001F93CF93DF93EC01042F79016D3009F411
:1015200046C050F46B30C9F1693009F49FC06A308D
:1015300009F465C080E046C06E3009F452C06F30D7
:1015400099F70E94170AF7011381110F110F110F5C
:101550006C89160F60E4CE010E947C0A612F6295AF
:101560006F706061CE010E947C0A612F6F70CE01A6
:101570000E94730AF7016481606BCE010E94730AB6
:10158000F701408151816281660F660F660FCE01BF
:101590000E94200A0150A1F72EC06AE676EA442391
:1015A00011F065E676EACE010E94280A0AC04111D0
:1015B00010C06EE576EA0E94280AE881F9818289E6
:1015C0008C8B81E0DF91CF911F910F91FF90EF9075
:1015D000089567E576EA0E94280AE881F9818389FF
:1015E000EFCF0E94170A61E8CE010E947C0A602FAB
:1015F000CE010E94730ACE010E940E0AE2CFEA8554
:10160000FB8530E020E040E068E2CE010995EE8104
:10161000FF8130E020E040E064E1CE01099541E047
:101620006BE4CE010E94070AE881F981448169E2F6
:10163000CE010E94070A40E06BE4CE010E94070A37
:10164000E881F981448169E2CE010E94070A41E004
:101650006BE4CE010E94070AE881F981458169E2C5
:10166000CE010E94070A6FE676EA9DCF84EA96EAE9
:10167000888399831C8AA5CFDC011896ED91FC9193
:1016800030E020E040E069E10994DC011896ED913A
:10169000FC9130E020E040E068E10994CF93DF93D3
:1016A0001F92CDB7DEB76983BE016F5F7F4F0E9487
:1016B0008D040F90DF91CF910895EF92FF921F93C9
:1016C000CF93DF93EC01162F7A010E94450B60E463
:1016D000CE010E944E0BE885F9859701412F67E105
:1016E000CE010995CE01DF91CF911F91FF90EF9030
:1016F0000C943C0BEF92FF921F93CF93DF93EC017E
:10170000142F7901663181F138F4643109F44BC04A
:10171000653179F080E022C06831C9F150F169315A
:10172000C9F780913228882391F1CE010E943C0BA9
:101730002EC080913228882319F0CE010E943C0BE4
:10174000CE010E94450B60E0CE010E944E0B612F3E
:10175000CE010E944E0B81E080933228DF91CF9121
:101760001F91FF90EF900895642F0E944E0B81E02F
:10177000F5CF80913228882319F0CE010E943C0BCE
:10178000A701193138F4612FCE010E945D0B109230
:101790003228EDCF68E1CE010E945D0B185188E13F
:1017A000E80EF11CEDCF8E898F3F11F488E78E8B08
:1017B000E885F9859701412F64E1CE01DF91CF9152
:1017C0001F91FF90EF900994CF93DF93EC01A889CC
:1017D000B989FD0134913196949131968491139693
:1017E000FD01A4916317A8F1961798F1631B770B7D
:1017F0008A9FE02D1124E69FC001E79F900D1124E0
:10180000280F392F311D83E0220F331F8A95E1F70E
:10181000C9010496DA01245F3F4FE889F989E80F8E
:10182000F91FE491ED93019682179307B1F78D8923
:10183000882361F0FA019A01285F3F4F8191DF010F
:10184000119780958C932E173F07C1F7DF91CF91A9
:101850000895FA01CA0108961192E817F907E1F70D
:10186000E6CF4F925F926F927F928F929F92AF924C
:10187000BF92CF92DF92EF92FF920F931F93CF937D
:10188000DF93CDB7DEB72D97CDBFDEBF7C01C62E6F
:10189000D42EB22EDC0150968D919C91FC01329693
:1018A000149131960491512E560E040F81E0860F4B
:1018B000581608F411E0712CFE0131964F014424B2
:1018C0004394672CAC2C262DA4016B2DC7010E94DC
:1018D000E40BAC86DD864B8689869A86D701149602
:1018E000ED91FC919E01275F3F4F41E06FE0C70102
:1018F00009956394A394A51430F3D394710ED01674
:1019000000F32D96CDBFDEBFDF91CF911F910F91D8
:10191000FF90EF90DF90CF90BF90AF909F908F900F
:101920007F906F905F904F90089530917C29209127
:101930007D29832F922F64E070E00E94C82E482FEB
:10194000440F632F722F77FF02C06D5F7F4F759535
:10195000679575956795660F660F660F20E288EDAF
:1019600099E20C94310C30917C2920917D29832FB0
:10197000922F64E070E00E94C82E482F440F632F1E
:10198000722F77FF02C06D5F7F4F759567957595D4
:101990006795660F660F660F2EE388ED99E20C944B
:1019A000310CEF92FF920F931F93CF93DF93E82EAA
:1019B000E091E829F091E9293296C4911092F0293A
:1019C0008B01D0E0F12CF80161918F01E091DA29CF
:1019D000F091DB2988ED99E209958F3F980771F026
:1019E0008E3F2FEF920779F3282F4E2D6F2D88ED24
:1019F00099E20E94310CFC0EDF5FE5CF8D2FDF9165
:101A0000CF911F910F91FF90EF900895CF93DF93A7
:101A1000EC01683189F130F4643199F0673151F0AB
:101A200080E005C06931B9F16032D1F781E0DF9122
:101A3000CF91089550E0B9018EE799E20E94E40841
:101A4000F5CF8C859D85AE85BF85892B8A2B8B2B09
:101A500071F4E881F981A585B0E020EA36E841E03B
:101A600050E00E94802C6C877D878E879F878EE751
:101A700099E20E94DA09DACF6C857D858E859F8593
:101A80000E9421086E8970E0759567958EE799E24E
:101A90000E944B09CBCF8EE799E20E942409C6CF62
:101AA0000F931F93CF93DF938C016C32C0F46A3293
:101AB00008F040C0683269F1693209F44BC080E037
:101AC0006034C8F16F73F801E60FF11D868D8F3F0A
:101AD00089F1603108F058C0642F70E017C06D3292
:101AE00009F43FC060F384EB860F823040F7C62FC5
:101AF000CF73C00FD12FD11D8E8D61E070E04111E9
:101B00003EC00E946D0670E060E08E8D0E94680607
:101B100011C0025E1F4FD0E0F80181918F018F3F0D
:101B200031F061E070E0D03158F40E946D06DF5F63
:101B3000D63191F781E0DF91CF911F910F910895F8
:101B40000E946D0661E070E0F801319780810E948B
:101B50006806EDCF642F70E090E080E00E941907E6
:101B6000E9CF85E090E0433010F082E090E0880F0C
:101B7000991F880F991F05970197F1F7DBCF0E94F6
:101B80006D0661E070E0C1CF0E94430621E0892B21
:101B900009F420E0F801218FCDCF1F93CF93DF937D
:101BA000EC01EC89FD8949AD6A3059F43396E49132
:101BB000E40FE9AF18AE81E090E0DF91CF911F9183
:101BC0000895262F3296149168AD04960E94310C28
:101BD000E8ADE10FE8AFEFCFCF92DF92EF92FF9247
:101BE0000F931F93CF93DF93EC010E9449070D855C
:101BF0001E852F853889AB01BC01401B510B620B40
:101C0000730B8F8190E0B0E0A0E0481759076A0796
:101C10007B0708F429C10E9449076D877E878F875B
:101C2000988BEE80CE2CD12C8A810E9443067C01B9
:101C300088810E9443068C0189810E944306EC241E
:101C4000FD24EE0CFF1CEE0CFF1C000F111F082BD7
:101C50000E290B838C81902F9827937009F45FC015
:101C600094E0899F90011124802F8370822B8C83B4
:101C70008B3409F050C08FEF898F8D8110E015955E
:101C8000079515950795082700FF1AC00E94490778
:101C900009891A892B893C89AB01BC01401B510B76
:101CA000620B730B888590E0B0E0A0E08417950785
:101CB000A607B70758F48D8180FD33C081E08D837E
:101CC0000E944907698B7A8B8B8B9C8B8D8183302B
:101CD00009F477C040F5882309F44EC0813009F437
:101CE00074C0898D9A8D8111C1C0911187C01B8EDE
:101CF0009B8D9111CDC09A8D933009F481C09430A1
:101D000009F485C0DF91CF911F910F91FF90EF9063
:101D1000DF90CF900895873811F481E0ADCF198E10
:101D2000ACCF86E0CCCF843051F18630D1F614E0D0
:101D30001D8383E08A8F8CA19DA1892BB1F00E9425
:101D40004907CD88DE88EF88F88CAB01BC014C19BF
:101D50005D096E097F098B859C85B0E0A0E048177E
:101D600059076A077B0708F41A8F0E9449076D8B91
:101D70007E8B8F8B988FB5CF87E08A8FB2CF8A8D7D
:101D800084508230C0F40E9449070D891E892F8932
:101D9000388DAB01BC01401B510B620B730B898565
:101DA0009A85B0E0A0E084179507A607B70718F456
:101DB0001D8286E0E2CF8A8D833009F092CF85E0E4
:101DC000DCCF87E08D831A8E8CCF93E09D839A8D34
:101DD0009650923090F282E0D0CF95E09B8FEC8DC0
:101DE000FD8D309709F452C0099581E081CF96307E
:101DF00028F097E09B8FE8A1F9A1F3CF80E078CF9E
:101E000092E09B8FEAA1FBA1309729F47BCF83E07E
:101E10008B8FECA1FDA1099581E074CF91E09B8FA0
:101E2000EEA1FFA1F1CF943041F49A8D913009F0E9
:101E300069CF9B8FEAA5FBA5E7CF963051F49A8D29
:101E40009150923008F05ECF91E09B8FECA5FDA5FC
:101E5000DBCF973009F056CF9A8D913009F052CFF1
:101E60009B8FEEA5FFA5D0CF80E04CCF992309F43E
:101E7000B4CF2CEF290F223020F02B8D263009F023
:101E8000B6CF96E09B8FEE8DFF8DABCF9B8D80E024
:101E90002EEF290F223038F69A8D923009F4BECFFA
:101EA000963009F02FCF94E09B8FE8A5F9A5ACCF31
:101EB0000895EF92FF920F931F93CF93DF937C01CE
:101EC000EB018B01040F151FC017D10759F0D70183
:101ED000ED91FC910480F581E02D6881C7010995A1
:101EE0008993F2CFDF91CF911F910F91FF90EF90E7
:101EF00008950F931F93CF93DF93EC018B01809193
:101F0000C008E881F9810480F581E02D86FD13C0C9
:101F1000612FCE010995182FE881F9810480F581A0
:101F2000E02D602FCE010995082FC801DF91CF91D8
:101F30001F910F910895CE010995082FE881F9812D
:101F40000480F581E02D612FCE010995182FEDCF8A
:101F500000006093C4088091C30887FFFCCF809184
:101F6000C40808958F929F92AF92BF92CF92DF9252
:101F7000EF92FF920F931F93CF93DF93FC01808525
:101F8000882319F081FF0EC07894DF91CF911F91C3
:101F90000F91FF90EF90DF90CF90BF90AF909F9008
:101FA0008F90089580FFF1CF82849384A484B584B8
:101FB000C12CD12C760110E09401A501B601C70116
:101FC000A0E00E94FF2E99F1217030E040E050E047
:101FD00060E070E080E090E00E94FF2ED9F0D0E059
:101FE000C0E0103370F4C12FC695C695C69580E247
:101FF000C89FE0011124C05FDB4F812F8770C80F9D
:10200000D11DCF01810F911DDC0152968C919881D9
:10201000892B88839401A501B601C70101E00E94C4
:10202000E42E49015A016B017C011F5FC5CF8684F4
:102030009784A088B188C12CD12C760110E294013C
:10204000A501B601C701A0E00E94FF2E09F49DCFB3
:10205000217030E040E050E060E070E080E090E02F
:102060000E94FF2ED9F0D0E0C0E0103370F4C12FF1
:10207000C695C695C695B0E2CB9FE0011124C05F1E
:10208000DB4F812F8770C80FD11DCF01810F911DAC
:10209000DC0152968C919881892B88839401A5014B
:1020A000B601C70101E00E94E42E49015A016B010B
:1020B0007C011F5FC4CFFC016F3F710581F18085FA
:1020C00081FD2DC0603271055CF581E090E002C0B9
:1020D000880F991F6A95E2F780959095092E000C5C
:1020E000AA0BBB0B42855385648575858423952394
:1020F000A623B72382879387A487B5878285938594
:10210000A485B585892B8A2B8B2B49F486859785E9
:10211000A089B189892B8A2B8B2B09F4108608950D
:102120006052710981E090E002C0880F991F6A95A2
:10213000E2F780959095092E000CAA0BBB0B468503
:1021400057856089718984239523A623B7238687C1
:102150009787A08BB18BD2CFFC016F3F7105E9F15E
:10216000603371051CF082E080870895808581606E
:10217000808760327105C4F481E090E002C0880F6E
:10218000991F6A95E2F7092E000CAA0BBB0B42853A
:10219000538564857585842B952BA62BB72B828759
:1021A0009387A487B58708956052710981E090E014
:1021B00002C0880F991F6A95E2F7092E000CAA0B3E
:1021C000BB0B4685578560897189842B952BA62B7F
:1021D000B72B86879787A08BB18B0895E0ECF8E04A
:1021E00020812E7F2083FC0117820895E0ECF8E027
:1021F00082818E7F82830895E0ECF8E082818160A5
:1022000082830895CF93DF936230710509F45FC034
:1022100034F46130710549F1DF91CF910895633055
:10222000710509F471C064307105B1F7FC01EC511E
:10223000FF4F28E130E020833183DC01AD56BF4FF2
:1022400021E030E02D933C938B559F4FDC018D9125
:102250009C918230910504F348E1489F9001499F89
:10226000300D112420833183D7CF81599F4FDC015A
:10227000CD91DC9181E0209709F480E08093692979
:1022800070E060E084E10E94FC0570E060E081E1C4
:102290000E94FC0570E060E085E10E94FC0570E0B2
:1022A00060E088E00E94FC0570E060E08EE00E9443
:1022B000FC05CD2B09F4B0CF0E9449076093652936
:1022C000709366298093672990936829A5CF209100
:1022D0006929222309F4A0CF8F579F4FFC01208149
:1022E0003181032E000C440B550B64EC79E080E047
:1022F00090E00E94612C20936129309362294093E1
:1023000063295093642988CFFC01EC51FF4F28E1E9
:1023100030E020833183DC01AB55BF4F41E050E01A
:102320004D935C938D569F4FDC016D917C91623093
:1023300071050CF471CFC9010E94C82E60837183AE
:102340006BCF8C519F4FFC0120813181032E000CFB
:10235000440B550B60915D2970915E2980915F2936
:10236000909160290E94932C61157105810591055A
:1023700029F461E070E084E10C94FC0561307105A2
:102380008105910519F470E060E0F5CF0895CF93D1
:10239000DF93FC01E35AFF4F20813181621713065E
:1023A00069F44C3358F4EC01EC57FF4F70E060E0F7
:1023B00080810E946806CD51DF4F1882DF91CF9156
:1023C0000895FC01ED56FF4F62307105A1F41082B3
:1023D00011826630710531F16730710559F4FC01E5
:1023E000E753FF4F2081318172968081918182175E
:1023F00093071CF10895DC01AF57BF4F1D921C924B
:102400006330710521F720813181232B99F3FC0181
:10241000EC51FF4F8C5B9E4F2CE321938E179F074F
:10242000E1F70895FC01E552FF4F20813181729759
:102430008081918128173907ECF620833183DACF28
:102440004F925F926F927F928F929F92AF92BF92C4
:10245000CF92DF92EF92FF920F931F93CF93DF9370
:10246000EC01FC01E159FF4F0081118180905D2951
:1024700090905E29A0905F29B090602983E0880E3B
:10248000911CA11CB11CE459FF4F80819181092E40
:10249000000CAA0BBB0B881A990AAA0ABB0A86E091
:1024A000809F9001819F300D1124032E000C440B5E
:1024B000550BC501B4010E94932C6C0F7D1F6C510C
:1024C0007F4FFB018081882379F0FE01EF51FF4FA0
:1024D00061E070E080810E946806C35BDF4F888204
:1024E0009982AA82BB8232C0C501B40126E030E0E5
:1024F00040E050E00E94932CFE01672B682B692B73
:10250000B1F5EF57FF4FC080D180729680819181E5
:102510007801E81AF90A2801012E000C66087708EC
:10252000CA01B901A30192010E94932C6E0D7F1D77
:102530006C9DC0016D9D900D7C9D900D1124B80186
:102540000E94C82E8C159D050CF4BFCFDF91CF9152
:102550001F910F91FF90EF90DF90CF90BF90AF90C1
:102560009F908F907F906F905F904F900895E35B66
:10257000FF4F80819181881A990AE458FF4F80812A
:1025800091818816990611F7CF51DF4F70E060E016
:102590008881DF91CF911F910F91FF90EF90DF9095
:1025A000CF90BF90AF909F908F907F906F905F90F3
:1025B0004F900C946806CF93DF93EC01FC01EF5130
:1025C000FF4F70E060E080810E946806CD51DF4FD0
:1025D0001882DF91CF9108951F93CF93DF93FC0171
:1025E000E35AFF4F208131816217130671F5EC0128
:1025F000EC57FF4F61E070E080810E946806FE01A9
:10260000ED51FF4F11E01083FE9780819181892B5E
:10261000E1F0F6978081918146E0489F9001499FC3
:10262000300D1124032E000C440B550B60915D29D5
:1026300070915E2980915F29909160290E94932C6E
:10264000C60FD71FCC51DF4F1883DF91CF911F9159
:102650000895FC01E954FF4F6430710519F41082AC
:1026600011820895DC01AB55BF4F1D921C9265305D
:102670007105A9F720813181232B49F0FC01EC5130
:10268000FF4F8C5B9E4F1192E817F907E1F7089511
:10269000DC01FB0130E020E09D9191110CC0FB01B9
:1026A000E20FF31F80E29F01261B370B241735072B
:1026B0004CF48193F8CF91932F5F3F4F421753070C
:1026C00059F708950895EF92FF920F931F93CF93B8
:1026D000DF93CDB7DEB7C45ED109CDBFDEBF609159
:1026E0000E2A70910F2A683071050CF075C0FB013D
:1026F000EE0FFF1FEC5AF54D8083918322E537EAF8
:1027000029833A83FC01228133812B833C8328E097
:102710003496DE01159601900D922A95E1F721E499
:10272000FC013C96DE011D9601900D922A95E1F781
:10273000FC01E35BFF4F00811181228133816296AE
:102740000CAF1DAF2EAF3FAF62979C012F5A3F4F8A
:10275000AE014E5A5F4F7C01F1EEEF0EF11C12E11B
:10276000F901DA0101900D921A95E1F72E5E3F4FC3
:102770004E5E5F4F2E153F0591F7F9012081CE5136
:10278000DF4F2883C25ED040FC01EE51FF4F208115
:10279000CD51DF4F2883C35ED0408D519F4FFC0148
:1027A0008081CC51DF4F8883C45ED04083E0660FC8
:1027B000771F8A95E1F76F5E754D47E050E0CE01D7
:1027C00005960E94481380910E2A90910F2A019637
:1027D00080930E2A90930F2ACC51DF4FCDBFDEBFDE
:1027E000DF91CF911F910F91FF90EF9008958F92FD
:1027F0009F92AF92BF92EF92FF920F931F93CF934E
:10280000DF93EC01A22F413009F477C0FC01E35AB9
:10281000FF4F808191816817190609F06EC0415001
:10282000550B82E1849FF001859FF00D1124EC0F80
:10283000FD1FEF59FF4F80819181019709F45DC021
:1028400080917C2990917D294817590709F44EC041
:1028500040935B2950935C2910925A2900915B297F
:1028600010915C2922E1209FC001219F900D11242D
:102870008C0F9D1FFC01E75AFF4F80809180092C2F
:10288000000CAA08BB087C012DE5E20EF11C855A5C
:102890009F4FFC0120813181032E000C440B550B0E
:1028A000281939094A095B09B0E00E94802C2FE7FA
:1028B00030E040E050E00E94612C820E931EA41E86
:1028C000B51EF70180829182E881F9810680F78147
:1028D000E02DB801CE01DF91CF911F910F91FF90B4
:1028E000EF90BF90AF909F908F90099480915A295C
:1028F0008111B4CF81E080935A29DF91CF911F914C
:102900000F91FF90EF90BF90AF909F908F900895A0
:10291000EF92FF921F93CF93DF93CDB7DEB762970D
:10292000CDBFDEBFDC0112962D913C9128303105E0
:102930000CF049C042E1429FD001439FB00D1124E9
:10294000A80FB91FAF5ABF4FFE017A96542F0190BE
:102950000D925A95E1F7FE017A96DE0111960190EB
:102960000D924A95E1F7FE0131967F01A90163E0DE
:10297000440F551F6A95E1F7BA01635F7F4F680FF7
:10298000791FF0E0E0E0D7011D917D0111110FC02A
:10299000E40FF51FE80FF91F480F591F60E2DF0130
:1029A000A41BB50B179754F465873196F8CFDB015C
:1029B0001D93BD013196E730F10529F72F5F3F4F99
:1029C000FC01228333836296CDBFDEBFDF91CF91BE
:1029D0001F91FF90EF900895EF92FF920F931F9336
:1029E000CF93DF93EC01CB01F42EE22E22E537EA00
:1029F000288339831A821B82FE013C969E01245B48
:102A00003F4F40E24193E217F307E1F71082BE0126
:102A10006C5F7F4F48E050E00E9448138E010F51D9
:102A20001F4FF801F082CE51DF4FE88261E070E085
:102A30008F2D0E946D0670E060E0F8018081DF91CB
:102A4000CF911F910F91FF90EF900C946806CF9358
:102A5000DF932091512A3091522A2F3F320739F0CB
:102A600090915A29911106C081E080935A29DF91F3
:102A7000CF910895220F331FF901EC5AF54DA08133
:102A8000B18160917C2970917D2992E1969F90019E
:102A9000979F300D11242A0F3B1FF901EF59FF4F6B
:102AA00040815181882349F14130510501F3349728
:102AB0001816BCF480819181255A3F4FE901288185
:102AC0003981821793071CF4019680839183ED91DD
:102AD000FC9111970680F781E02DCD01DF91CF9118
:102AE000099480819181275A3F4FE90128813981DA
:102AF0002817390764F70197E8CF4130510539F7B6
:102B0000F901E35AFF4F80819181481B590B4083A3
:102B10005183DDCF80E00C94271520915B29309103
:102B20005C291816F4F42F5F3F4F20935B293093F4
:102B30005C292091512A3091522A80915B299091F1
:102B40005C292F3F320781F460910E2A70910F2A81
:102B5000860F971F0E94C82E80935B2990935C2953
:102B6000089521503109E1CF220F331FF901EC5AAA
:102B7000F54D0190F081E02D62817381860F971FE2
:102B80000E94C82E80935B2990935C2910925A2949
:102B900008958091512A9091522A8F3F9807F1F41D
:102BA00080917C2990917D29FC01EE0FFF1FEC5A4A
:102BB000F54D0190F081E02D22813381232B51F1DD
:102BC0008093512A9093522A10925A2910925B298D
:102BD00010925C2981E08093532A0895880F991FF1
:102BE000FC01EC5AF54D80819181FC01ED51FF4FC4
:102BF0002081222341F08F519F4F70E060E0FC0163
:102C000080810E9468068FEF9FEF8093512A9093F6
:102C1000522ADCCF90E080E0E8CF0895CF92DF9297
:102C2000EF92FF920F931F93CF93DF936C01EB0111
:102C30007B01E40EF51E10E000E0CE15DF0561F02B
:102C40006991D601ED91FC910190F081E02DC601D2
:102C50000995080F191FF1CFC801DF91CF911F917E
:102C60000F91FF90EF90DF90CF900895089590E03E
:102C700080E00895CF93DF93FC01E35AFF4F20815A
:102C800031816217130659F4EC01EC57FF4F70E0E5
:102C900060E080810E946806CD51DF4F1882DF918D
:102CA000CF91089565307105C9F06630710521F145
:102CB0006230710561F5FC01EF57FF4F20813181D2
:102CC000232B29F1ED57FF4F108211828F519F4F17
:102CD00070E060E0FC0180810C946806FC01E75321
:102CE000FF4F2081318172978081918128173907A8
:102CF00074F4208331830BC0FC01E954FF4F208121
:102D000031817296808191818217930794F308959F
:102D10000F931F93CF93DF938C01D62FC72F70E0B3
:102D200060E08AE00E94FC056C2F012B99F460633F
:102D30008AE899E20E94A80F6D2F8AE899E20E9422
:102D4000A80F61E070E08AE0DF91CF911F910F91B1
:102D50000C94FC05606BECCFDC018D919C91DC0147
:102D6000ED91FC910190F081E02D09946D3F48F4C4
:102D70006A3F10F4683F39F4FC01808191810C9422
:102D8000AC166E3FC8F708951F93CF93DF93813E33
:102D900030F52150203168F587FF2BC0D42F162F36
:102DA000C82F622F682B8091942A9091952A0E94B7
:102DB000AC16612F6F778091942A9091952A0E948A
:102DC000AC16CF7EC03CA9F06D2F6F778091942A0E
:102DD0009091952ADF91CF911F910C94AC16883F6A
:102DE00040F0682F84E99AE2DF91CF911F910C9413
:102DF000B616DF91CF911F91089587FF0AC09CE01E
:102E0000980F923030F08D3F21F0803F18F4807F92
:102E1000089580E00895982F9F7E282F2F7C2038DA
:102E200039F0803E29F081E0903C19F080E008956F
:102E300081E00895242FE091512AF091522AEF3F2A
:102E4000FE07E1F0EE0FFF1FEC5AF54DA081B181B6
:102E50001097A1F0662391F012964D915C91139713
:102E60006417150609F054F4ED91FC911197048054
:102E7000F581E02D462F682FCD0109940895CF9359
:102E8000C62F0E94950C8FEF9FEF8093512A90934D
:102E9000522A8C2F90E060910E2A70910F2A0E9486
:102EA000C82E80937C2990937D29CF910C94C915CD
:102EB000242FE091512AF091522AEF3FFE0791F022
:102EC000EE0FFF1FEC5AF54DA081B181109751F024
:102ED000ED91FC9111970280F381E02D462F682F30
:102EE000CD0109940895242FE091512AF091522A9E
:102EF000EF3FFE0791F0EE0FFF1FEC5AF54DA0815A
:102F0000B181109751F0ED91FC9111970190F081F2
:102F1000E02D462F682FCD01099408950F931F933C
:102F2000CF93DF9304E51AE2D0E0C0E080910E2A4F
:102F300090910F2AC817D9076CF4D8018D919D91F3
:102F40008D01DC01ED91FC910084F185E02D099566
:102F50002196ECCFDF91CF911F910F910895809131
:102F60006929811115C00E948E1780915D29909169
:102F70005E29A0915F29B09160290196A11DB11D24
:102F800080935D2990935E29A0935F29B093602977
:102F90000895AF92BF92CF92DF92EF92FF920F937C
:102FA0001F93CF93DF93CDB7DEB76297CDBFDEBF60
:102FB0008C01E22E0E94EC148DE496EAF8018083E5
:102FC0009183F12C48E050E0BE016F5F7F4F8DE2AE
:102FD00098EA0E94481319861A8680E1C82ED12CDF
:102FE000CB86DC86ED86FE86EF86F88A92E0A92EF7
:102FF000B12CA98ABA8A2DB73EB7225131092DBF0B
:103000003EBFADB7BEB7119682E1FE013196019089
:103010000D928A95E1F7C8010E94881448E050E0BB
:10302000BE016F5F7F4F88EC97EA0E944813EE2441
:10303000E394F12CE986FA86CB86DC86CD86DE86A3
:10304000CF86D88A198A1A8A8DB79EB742978DBFC4
:103050009EBFADB7BEB7119682E1FE0131960190D9
:103060000D928A95E1F7C8010E948814CDBFDEBF9A
:1030700048E050E0BE016F5F7F4F8FEC97EA0E94FF
:10308000481319861A86CB86DC8684E090E08D870B
:103090009E878F87988B198A1A8A2DB73EB722513F
:1030A00031092DBF3EBFADB7BEB7119682E1FE011B
:1030B000319601900D928A95E1F7C8010E9488141B
:1030C00048E050E0BE016F5F7F4F85ED97EA0E94B8
:1030D000481319861A86CB86DC861D861E861F86B7
:1030E000188A198A1A8A8DB79EB742978DBF9EBFDC
:1030F000ADB7BEB7119682E1FE01319601900D92F7
:103100008A95E1F7C8010E948814CDBFDEBF48E070
:1031100050E0BE016F5F7F4F8BED97EA0E9448132E
:1031200019861A86EB86FC861D861E861F86188ADF
:10313000E98AFA8A2DB73EB7225131092DBF3EBF29
:10314000ADB7BEB7119682E1FE01319601900D92A6
:103150008A95E1F7C8010E94881448E050E0BE015A
:103160006F5F7F4F82EE97EA0E94481319861A8696
:10317000EB86FC861D861E861F86188AE98AFA8AD7
:103180008DB79EB742978DBF9EBFADB7BEB71196A4
:1031900082E1FE01319601900D928A95E1F7C80116
:1031A0000E948814CDBFDEBF48E050E0BE016F5FD3
:1031B0007F4F8AEF97EA0E944813E986FA8685E0F6
:1031C00090E08B879C87AD86BE86AF86B88A33E059
:1031D000E32EF12CE98AFA8A2DB73EB72251310944
:1031E0002DBF3EBFADB7BEB7119682E1FE0131964D
:1031F00001900D928A95E1F7C8010E94881448E079
:1032000050E0BE016F5F7F4F89EE97EA0E9448133E
:1032100019861A8686E090E08B879C87ED86FE866D
:10322000EF86F88A898B9A8B8DB79EB742978DBFB0
:103230009EBFADB7BEB7119682E1FE0131960190F7
:103240000D928A95E1F7C8010E948814F801EC51AB
:10325000FF4FC8018C5B9E4FCDBFDEBF1192E817B8
:10326000F907E1F7F801ED51FF4F10826296CDBFEB
:10327000DEBFDF91CF911F910F91FF90EF90DF9014
:10328000CF90BF90AF9008950895DC01ED91FC912F
:103290000088F189E02D23E030E009940C94A72FF9
:1032A000CF92DF92EF92FF920F93FC01C12CB9E015
:1032B000DB2EBDE3EB2EF12CC082D182E282F382C1
:1032C0001482158281E090E086839783C090002865
:1032D000D0900128E0900228F0900328F694E7941B
:1032E000D794C79490E04C155D056E057F0540F4BA
:1032F000F694E794D794C7949F5F9630A1F797E030
:1033000004600187892F8095A82FA170B0E084E028
:10331000AA0FBB1F8A95E1F791629A2B80E0232BBD
:1033200009F480E4982B90870F91FF90EF90DF9045
:10333000CF9008950F931F93CF93DF93CDB7DEB750
:103340002A97CDBFDEBF8C01FC01878181110CC0A3
:1033500010861186128613861486158616861786A1
:10336000108A118A81E087838091E305F8019681B4
:10337000892B8093E30561E070E083810E946D06F4
:1033800061E070E0F80184810E946D068091C108BF
:1033900084608093C1088091C00881628093C008D6
:1033A0004091CC295091CD296091CE297091CF299F
:1033B0000091D0292091D2293091D329CE010196B4
:1033C0000E94501999858A859093C0088093C108FE
:1033D0002A96CDBFDEBFDF91CF911F910F91089547
:1033E0005F926F927F928F929F92AF92BF92CF9295
:1033F000DF92EF92FF920F931F93CF93DF93CDB79E
:10340000DEB76297CDBFDEBF3C010B871C872D87DF
:103410003E87042F4F87588B698B7A8B29893A898D
:103420004B855C856D857E85CE0101960E94501985
:1034300019855A84D30118968C91882319F081FF3D
:1034400018C0F8941093C0085092C1086296CDBF7E
:10345000DEBFDF91CF911F910F91FF90EF90DF9032
:10346000CF90BF90AF909F908F907F906F905F9024
:10347000089580FFE7CFF30182849384A484B58408
:10348000C12CD12C7601B0E09401A501B601C70191
:10349000A0E00E94FF2EA9F1217030E040E050E052
:1034A00060E070E080E090E00E94FF2EE9F090E0A4
:1034B00080E0B03370F48B2F869586958695F0E288
:1034C0008F9FC0011124805F9B4F2B2F2770820F8D
:1034D000911DFC01408193012B0F311DF901428B9D
:1034E000FC012081287F20839401A501B601C7013A
:1034F00001E00E94E42E49015A016B017C01BF5F8B
:10350000C3CFD3011E968D909D90AD90BC905197E6
:10351000C12CD12C7601B0E29401A501B601C701FE
:10352000A0E00E94FF2E09F48DCF217030E040E032
:1035300050E060E070E080E090E00E94FF2EE9F053
:1035400090E080E0B03370F48B2F86958695869559
:10355000E0E28E9FC0011124805F9B4F2B2F2770CC
:10356000820F911DFC01408193012B0F311DF90148
:10357000428BFC012081287F20839401A501B601A4
:10358000C70101E00E94E42E49015A016B017C0150
:10359000BF5FC2CFAF92BF92CF92DF92EF92FF9206
:1035A0000F931F93CF93DF93EC01C0905D29D090D0
:1035B0005E29E0905F29F0906029FC01E159FF4FFE
:1035C0008081918146E0489F9001499F300D1124F0
:1035D000032E000C440B550BC701B6010E94932C1F
:1035E0006C0F7D1F5B0184EEA80EB11CF50180817C
:1035F00090E0FE01E753FF4F208131818E01035B94
:103600001F4F82179307F4F172962081318128179A
:103610003907C4F1369661E070E080810E94680647
:10362000C954DF4FF50160818881680F6C3308F061
:103630006C5070E090E080E00E946E2D20E030EF52
:103640004FE755E40E94FA2D20E030E04CE652E4CA
:103650000E94C42C0E94672E0E94362D81E090E0CB
:103660000E948816F801C082D182E282F382DF9143
:10367000CF911F910F91FF90EF90DF90CF90BF906F
:10368000AF900895F80180819181C81AD90AFE018E
:10369000EB55FF4F80819181C816D90641F7CF5174
:1036A000DF4F70E060E08881DF91CF911F910F9133
:1036B000FF90EF90DF90CF90BF90AF900C94680692
:1036C0001F93CF93DF93FC01E35AFF4F2081318199
:1036D0006217130609F04FC04C3308F04CC0142F8A
:1036E000EC01642F70E090E080E00E946E2D20E0FD
:1036F00030EF4FE755E40E94FA2D20E030E04CE631
:1037000052E40E94C42C0E94672E0E94362D81E054
:1037100090E00E948816FE01EF51FF4F61E070E0DB
:1037200080810E946806FE01EF57FF4F80819181E2
:10373000892BE9F072978081918146E0489F900142
:10374000499F300D1124032E000C440B550B609142
:103750005D2970915E2980915F29909160290E9476
:10376000932C6C0F7D1F6C517F4FFB011083CD514B
:10377000DF4F81E08883DF91CF911F9108950F93F0
:103780001F93CF93DF93CDB7DEB72A97CDBFDEBFB0
:103790008C018AE0E6E1F6EADE01119601900D92D5
:1037A0008A95E1F70E94512C66E070E00E94C82ED5
:1037B000F801E552FF4F2081318182179307CCF445
:1037C0000E94512C65E070E00E94C82EFC01EE0FB3
:1037D000FF1F81E090E08C0F9D1FE80FF91F808193
:1037E00091812A96CDBFDEBFDF91CF911F910F91BE
:1037F000089590E080E0F5CF8F929F92AF92BF92B4
:10380000CF92DF92EF92FF920F931F93CF93DF93AC
:10381000EC01FC01E159FF4F80819181892B09F076
:1038200080C0EB56FF4F008111810115110509F48D
:1038300078C0C0905D29D0905E29E0905F29F0901B
:103840006029C701B60126E030E040E050E00E9468
:10385000932C49015A01672B682B692B09F06EC024
:103860009801110F440B550BC501B4010E94932C14
:103870006E587F4F660F771FFE01E60FF71F00811E
:103880001181FE01E954FF4F8081918108171907CA
:103890000CF447C0729680819181081719070CF0CB
:1038A00040C0789661E070E080810E946806045C08
:1038B0001F4FFE01EB55FF4F80819181080F191FAB
:1038C000CE010E94BF1B800F911F6CE370E00E942D
:1038D000C82EBC01990F880B990B0E946E2D20E019
:1038E00030EF4FE755E40E94FA2D20E030E04CE63F
:1038F00052E40E94C42C0E94672E0E94362D90E054
:1039000080E00E948816C35BDF4F80915D29909113
:103910005E29A0915F29B091602988839983AA8349
:10392000BB83DF91CF911F910F91FF90EF90DF90BC
:10393000CF90BF90AF909F908F900895FE01E35B72
:10394000FF4F80819181C81AD90AEA5BFF4F8081BD
:103950009181C816D90629F7CF51DF4F70E060E09A
:103960008881DF91CF911F910F91FF90EF90DF90B1
:10397000CF90BF90AF909F908F900C9468060F935C
:103980001F93CF93DF93FC01E35AFF4F20813181D6
:103990006217130609F062C04C3308F05FC0042FB1
:1039A00010E0E65AFF4F20813181021713070CF413
:1039B00055C0EC01BA9661E070E080810E94680613
:1039C000FE01E159FF4F80819181892BA9F0DE0131
:1039D000AC5FBE4F8D919C9111978031910564F43D
:1039E000FC01EE58FF4FEE0FFF1FEC0FFD1F008391
:1039F000118301968D939C93045C1F4FFE01EB5540
:103A0000FF4F80819181080F191FCE010E94BF1BBB
:103A1000800F911F6CE370E00E94C82EBC017727D5
:103A2000072E000C880B990B0E946E2D20E030EFC2
:103A30004FE755E40E94FA2D20E030E04CE652E4D6
:103A40000E94C42C0E94672E0E94362D90E080E0D8
:103A50000E948816CD51DF4F81E08883DF91CF919E
:103A60001F910F9108951F920F920FB60F9211247C
:103A70002F933F934F935F936F937F938F939F9376
:103A8000AF93BF9340917029509171296091722931
:103A90007091732980916E2990916F2920916C29E2
:103AA00030916D29420F531F611D711D20916A29AC
:103AB00030916B29820F931F883E23E0920730F0EC
:103AC000885E93404F5F5F4F6F4F7F4F80936E29AB
:103AD00090936F29409370295093712960937229B4
:103AE000709373298091782990917929A0917A29EE
:103AF000B0917B290196A11DB11D809378299093E7
:103B00007929A0937A29B0937B2981E08093860A52
:103B1000BF91AF919F918F917F916F915F914F91E5
:103B20003F912F910F900FBE0F901F9018951F92ED
:103B30000F920FB60F9211242F933F934F935F93E1
:103B40006F937F938F939F93AF93BF93EF93FF9365
:103B50008AE39BE20E94EB04FF91EF91BF91AF914A
:103B60009F918F917F916F915F914F913F912F9195
:103B70000F900FBE0F901F9018951F920F920FB6C7
:103B80000F9211242F933F934F935F936F937F93E3
:103B90008F939F93AF93BF93EF93FF93E091462B47
:103BA000F091472B818181FD2FC0608180914C2B4A
:103BB0008F5F8F7390914D2B891741F0E0914C2BC3
:103BC000F0E0E65CF44D618F80934C2B8091D32B19
:103BD0009091D42B009739F0DC01ED91FC9101908C
:103BE000F081E02D0995FF91EF91BF91AF919F91E9
:103BF0008F917F916F915F914F913F912F910F9096
:103C00000FBE0F901F9018958081EDCF1F920F92DD
:103C10000FB60F9211242F933F934F935F936F939F
:103C20007F938F939F93AF93BF93CF93EF93FF9324
:103C3000C091AB08C2FF0AC010924D2910924C29C6
:103C400010924B2984E00E94EE0714C0C6FF2FC0DB
:103C500080914A29813051F480914D29E091482981
:103C6000F091492990E0099510924A29C0FF14C0AB
:103C70000E94FE07FF91EF91CF91BF91AF919F916D
:103C80008F917F916F915F914F913F912F910F9005
:103C90000FBE0F901F90189580E48093AB0881E0D1
:103CA0000E94EE078091AB0885FFE4CFE1CFC7FF0C
:103CB0005CC0C3FF08C010924D2910924C2910928D
:103CC0004B2983E0C0CF8091A90880668093A90822
:103CD0008091AB0881FF2CC080914C29882349F04A
:103CE0008091AB0884FF05C082E08093AA0881E040
:103CF000AACF90914C2980914B299817A8F4E09174
:103D00004C298091432990914429E80FF92FF11D06
:103D100080818093AD0880914C298F5F80934C29DE
:103D200083E08093AA08A6CF82E08093AA088BCF75
:103D300090914D2980914729981790F48091AD0872
:103D4000E0914D292091452930914629E20FF32F2A
:103D5000F11D808380914D298F5F80934D29E0CFA5
:103D600086E08093AA0882E06ECF85E06CCF1F9238
:103D70000F920FB60F9211242F933F938F939F931F
:103D8000EF93FF938091A508982F9C70E1F08091AC
:103D9000A50894E082FF93E0909358298093A508AA
:103DA00081E090E080934E2990934F2910925929F9
:103DB000FF91EF919F918F913F912F910F900FBEA7
:103DC0000F901F90189586FF4EC020915529909115
:103DD00054298091A50884FF15C08091512988231A
:103DE00079F083E08093A40885E0809358291092AD
:103DF000592981E090E080934E2990934F29D8CFA4
:103E000081E0F0CF80915329821790F4E0915329FB
:103E10008091562990915729E80FF92FF11D808143
:103E20008093A808809153298F5F80935329C0CF36
:103E300080915229891760F484E090E080934E29A4
:103E400090934F298091502981608093A708B0CF2B
:103E500080915129882329F083E08093A40881E090
:103E6000C4CF81E0FACF87FF40C090915229809162
:103E700054299817D8F48091A808E09152292091EC
:103E8000412930914229E20FF32FF11D8083809167
:103E900052298F5F80935229909154298091522901
:103EA0008917D8F482E08093A40882CF80915129A9
:103EB000882389F087E08093A40882E080935829C2
:103EC0001092592981E090E080934E2990934F29D8
:103ED000109254296DCF85E0EECF8091512988232F
:103EE00011F087E0BACF85E0B8CF86E07ECFCF92E1
:103EF000DF92FF920F931F93CF93DF936C01162FE6
:103F0000F42E022F62E070E0812F0E946D0662E0C5
:103F100070E08F2D0E946D0662E070E0802F0E949D
:103F20006D0680E390E00E940B2FEC0187E08B830D
:103F300093E09C838D831E8281E08F8382E3888758
:103F400088EE93E089879A878AEF90E08B879C8739
:103F50001D861E861F86188A198E1A8E1B8E1C8E31
:103F60001D8E1E8E1F8E18A219A21AA21BA21CA2A1
:103F70001DA21EA21FA218A619A61AA61BA61CA641
:103F80001DA61EA61FA61883F9820A8362E070E0B0
:103F9000812F0E946D0662E070E089810E946D06AB
:103FA00062E070E08A810E946D06F601C083D183D1
:103FB000DF91CF911F910F91FF90DF90CF900895E7
:103FC000CF93DF9310923C2B10923D2B88EE93E021
:103FD000A0E0B0E080933E2B90933F2BA093402B2A
:103FE000B093412B20E637EA20933A2B30933B2BBA
:103FF00020E238E02093462B3093472B1092482B39
:1040000021E02093492B24E020934A2B10924C2B43
:1040100010924D2B10924E2B10924F2B2BE1209390
:10402000502B1092512B1092522B1092D32B109296
:10403000D42B109280291092812980938229909309
:104040008329A0938429B09385298AE797EA8093EE
:104050007E2990937F2980E099E0ADE3B0E08093E2
:10406000CC299093CD29A093CE29B093CF2910923B
:10407000D0291092D12981E090E08093D2299093A9
:10408000D32982EA97EA80938A2990938B29109208
:10409000912982E0809390298CE080938C298DE097
:1040A00080938E298BE080938D2988E080938F29DF
:1040B0001092D6291092D72910920C2A10920D2A0C
:1040C00080EC97EA8093D4299093D5291092D8292F
:1040D0001092D9291092ED291092F0291092E4291A
:1040E0001092E5291092E6291092E7298FEF80932C
:1040F000EE298093F229E6EFF9E2CFEFC1938AE24D
:10410000EC30F807D9F785E89AE08093DC299093A2
:10411000DD298AE79BE08093DE299093DF2986E002
:104120009DE08093E0299093E12980E59DE08093D4
:10413000E2299093E32930E020E040E069E088ED57
:1041400099E20E94850AC093012AC093022AC09373
:10415000032A8AE39BE28093D52B9093D62B10926F
:104160006A2A10926B2A10926C2A10926D2A109271
:104170006E2A10926F2A1092702A1092712A109251
:10418000722A1092732A1092742A1092752A109231
:10419000762A1092772A1092782A1092792A109211
:1041A0007A2A10927B2A10927C2A10927D2A1092F1
:1041B0007E2A10927F2A1092802A1092812A1092D1
:1041C000822A1092832A1092842A1092852A1092B1
:1041D000862A1092872A1092882A1092892A109291
:1041E0008A2A10928B2A10928C2A10928D2A109271
:1041F0008E2A10928F2A1092902A1092912A109251
:10420000922A1092932A85ED9BE28093942A9093B0
:10421000952A1092962A1092972A1092982A109214
:104220009C2A10929D2A10929E2A10929F2A8FEF0C
:104230009FEF8093A02A9093A12A8093A22A909323
:10424000A32A83E08093A42A1092A52A1092A62A7A
:104250001092A72A1092A82A1092292BE9EAFAE2D2
:1042600080E8DF011D928A95E9F710922C2B1092BD
:104270002D2B10922E2B10922F2B1092302B109250
:10428000312B1092322B1092332B1092342B109230
:10429000352B1092362B1092372B1092382B109210
:1042A000392B86E890E00E940B2FFC01EE57FF4F60
:1042B00010821182329620E430E020833183FC01A9
:1042C000DC01A05CBF4F20E22193EF01C05CDF4F17
:1042D0002883AE17BF07C1F71C92FC01EF57FF4FB1
:1042E00010828093682A9093692A29E047E066E06B
:1042F00086E69AE20E94771F21E042E063E084E6CE
:104300009AE20E94771F8FEF9FEF8093512A90933C
:10431000522A81E08093532A10920E2A10920F2A7B
:10432000E0E1FAE280E59AE220E221938E179F070E
:10433000E1F71092502ADF91CF910895CF93DF9348
:10434000CDB7DEB7E497CDBFDEBF88ED90E084BF88
:104350009093610080E094E2A4EFB0E080930028A5
:1043600090930128A0930228B0930328809102061D
:10437000866080930206809100068160809300062B
:10438000809102068F7C809302068091A0008F7836
:104390008093A000809102068061809302061092B3
:1043A000E20581E08093E40583E08093010A8FEFCA
:1043B00090E08093260A9093270A80E890E080930B
:1043C000380A9093390A80933A0A90933B0A809373
:1043D0003C0A90933D0A8BE08093000A8091E505AA
:1043E00081608093E5058091E50582608093E50515
:1043F000E0E8FAE037E02FEF90E885E031832487AA
:10440000958780837096E03C4AE0F407B9F780E036
:1044100094E08093762990937729809176299091E2
:1044200077292FEF30E0B9010E94B42E60937429F0
:10443000709375298091762990917729E8EEF3E0C1
:10444000BF010E94B42E60936C2970936D298091F6
:10445000762990917729BF010E94B42E80936A2912
:1044600090936B2920938C0A30938D0A8091850A52
:1044700081608093850A84E08093800A8091800A1D
:1044800081608093800A789481E08093692984E137
:1044900090E0A0E0B0E08093612990936229A0931E
:1044A0006329B093642910925D2910925E291092BD
:1044B0005F2910926029E091DC29F091DD2930E03C
:1044C00020E040E06AE088ED99E20995CE0101968E
:1044D0001C0188E0D1011D928A95E9F7C1010E9473
:1044E0005D04E091DC29F091DD2930E020E040E03E
:1044F0006BE088ED99E2099580EA90E08093E829E5
:104500009093E9298FEF9FEF80937C2990937D29E9
:1045100010925B2910925C2908E517E00093DA29D4
:104520001093DB296EEE77EA80E00E94D10C0093B5
:10453000DA291093DB2966EF77EA82E00E94D10C3A
:104540000093DA291093DB296FEF77EA84E00E9469
:10455000D10C8AE098EA9F938F938FE098EA9F931B
:104560008F933F922F920E9437300093DA29109355
:10457000DB29B10186E00E94D10C85E0E0E2F6EA99
:10458000DE01959601900D928A95E1F78E010B5D03
:104590001F4F6E01BAE2CB0ED11C0F900F900F90FF
:1045A0000F900F900F9078010DA71EA761E070E0AB
:1045B000F70181917F010E94680664EF71E080E05D
:1045C00090E00E941907CE14DF0481F770E060E0EC
:1045D000D8018D918D010E946806E016F106B1F7B1
:1045E00088E0F10111928A95E9F7C1010E945D040A
:1045F00010920C2A10920D2A84E491E00E940B2F55
:104600008C0121E041E163E178EA0E94C917C80109
:104610000E94631384E491E00E940B2F8C0122E03E
:1046200045E16AE178EA0E94C917C8010E94631354
:1046300086E091E00E940B2F8C0123E048E061E2CC
:1046400078EA0E94EC1480EC96EAD8018D939C9352
:1046500048E050E0B1018DE298EA0E9448131986C3
:104660001A8680E1682E712C6B867C8693E0492E39
:10467000512C4D865E864F86588A22E0822E912CE0
:10468000898A9A8AEDB7FEB77297EDBFFEBFADB7C4
:10469000BEB7119682E1F10101900D928A95E1F782
:1046A000C8010E94881448E050E0B1018BED97EA00
:1046B0000E94481319861A86EE24E394F12CEB86A7
:1046C000FC861D861E861F86188AE98AFA8A2DB7FF
:1046D0003EB7225131092DBF3EBFADB7BEB71196CF
:1046E00082E1F10101900D928A95E1F7C8010E94E3
:1046F0008814CDBFDEBF48E050E0B10182EE97EAFA
:104700000E94481319861A86EB86FC861D861E8633
:104710001F86188AE98AFA8A8DB79EB742978DBF9D
:104720009EBFADB7BEB7119682E1F10101900D9227
:104730008A95E1F7C8010E94881448E050E0B10171
:104740008AEF97EA0E944813E986FA8645E0A42E8C
:10475000B12CAB86BC868D869E868F86988A498AC8
:104760005A8AADB7BEB75297ADBFBEBF119682E1B0
:10477000F10101900D928A95E1F7C8010E94881419
:10478000CDBFDEBF48E050E0B10188E298EA0E9468
:10479000481319861A862BE030E02B873C871D864C
:1047A0001E861F86188A44E050E0498B5A8B8DB7CD
:1047B0009EB742978DBF9EBFADB7BEB7119682E13F
:1047C000F10101900D928A95E1F7C8010E948814C9
:1047D00048E050E0B1018CE298EA0E944813198643
:1047E0001A865BE3C52ED12CCB86DC861D861E8601
:1047F0001F86188AA98ABA8AADB7BEB75297ADBFCD
:10480000BEBF119682E1F10101900D928A95E1F708
:10481000C8010E948814CDBFDEBF48E050E0B1015E
:1048200080E398EA0E94481319861A86CB86DC86B4
:10483000CD86DE86CF86D88AA98ABA8A2DB73EB7BA
:10484000225131092DBF3EBFADB7BEB7119682E1EF
:10485000F10101900D928A95E1F7C8010E94881438
:1048600048E050E0B10184E398EA0E9448131986B9
:104870001A8686E090E08B879C871D861E861F86A1
:10488000188A498A5A8A4DB75EB7425151094DBFBD
:104890005EBFADB7BEB7119682E1F10101900D92F6
:1048A0008A95E1F7C8010E948814F801EC5FFE4F79
:1048B00010821182B1971082CDBFDEBFC8010E9465
:1048C000631384E491E00E940B2F8C0124E04EE0FE
:1048D0006BE378EA0E94EC148EEC96EAD8018D9393
:1048E0009C9348E050E0B1018DE298EA0E944813A1
:1048F00019861A866B867C86E4E0F0E0ED87FE87F9
:10490000EF87F88B898A9A8A2DB73EB722513109F1
:104910002DBF3EBFADB7BEB7119682E1F101019048
:104920000D928A95E1F7C8010E94881448E050E092
:10493000B10188EC97EA0E944813E986FA866B86F3
:104940007C866D867E866F86788A198A1A8A4DB72C
:104950005EB7425151094DBF5EBFADB7BEB71196AC
:1049600082E1F10101900D928A95E1F7C8010E9460
:104970008814CDBFDEBF48E050E0B1018BED97EA6F
:104980000E94481319861A86EB86FC861D861E86B1
:104990001F86188AE98AFA8AADB7BEB75297ADBFAB
:1049A000BEBF119682E1F10101900D928A95E1F767
:1049B000C8010E94881448E050E0B10182EE97EAF5
:1049C0000E94481319861A86EB86FC861D861E8671
:1049D0001F86188AE98AFA8AEDB7FEB77297EDBF8B
:1049E000FEBFADB7BEB7119682E1F10101900D9205
:1049F0008A95E1F7C8010E948814CDBFDEBF48E068
:104A000050E0B1018AEF97EA0E944813E986FA86DE
:104A1000AB86BC868D869E868F86988A498A5A8AFE
:104A20004DB75EB7425151094DBF5EBFADB7BEB77E
:104A3000119682E1F10101900D928A95E1F7C8018A
:104A40000E94881448E050E0B10188E298EA0E9490
:104A5000481319861A868BE090E08B879C871D8609
:104A60001E861F86188AA4E0B0E0A98BBA8BEDB72A
:104A7000FEB77297EDBFFEBFADB7BEB7119682E12C
:104A8000F10101900D928A95E1F7C8010E94881406
:104A9000CDBFDEBF48E050E0B1018CE298EA0E9451
:104AA000481319861A86CB86DC861D861E861F86CD
:104AB000188AA98ABA8A4DB75EB7425151094DBFCB
:104AC0005EBFADB7BEB7119682E1F10101900D92C4
:104AD0008A95E1F7C8010E94881448E050E0B101CE
:104AE00080E398EA0E94481319861A86CB86DC86F2
:104AF000CD86DE86CF86D88AA98ABA8A8DB79EB738
:104B000042978DBF9EBFADB7BEB7119682E1F1014E
:104B100001900D928A95E1F7C8010E948814F8016E
:104B2000EC51FF4FC8018C5B9E4FCDBFDEBF2CE325
:104B30002193E817F907E1F7F801ED51FF4F1082D3
:104B4000C8010E94631386EE90E00E940B2F8C0137
:104B500025E044E162E478EA0E94EC148CED96EAE8
:104B6000F8018083918348E050E0B1018DE298EA3A
:104B70000E94481319861A8680E190E08B879C87F3
:104B800085E090E08D879E878F87988B82E090E00C
:104B9000898B9A8B2DB73EB7225131092DBF3EBF6D
:104BA000ADB7BEB7119682E1F10101900D928A95E1
:104BB000E1F7C8010E948814E0906929F12C48E0CF
:104BC00050E0B10187E498EA0E94481319861A86DA
:104BD000CC24C394D12CCB86DC86ED86FE86EF8672
:104BE000F88AC98ADA8A4DB75EB7425151094DBF7A
:104BF0005EBFADB7BEB7119682E1F10101900D9293
:104C00008A95E1F7C8010E948814CDBFDEBF48E055
:104C100050E0B1018DE498EA0E9448138EE190E0E3
:104C200089879A8780EF90E08B879C8788E790E060
:104C30008D879E878F87988B198A1A8AADB7BEB7E2
:104C40005297ADBFBEBF119682E1F10101900D9266
:104C50008A95E1F7C8010E94881448E050E0B1014C
:104C600081E598EA0E944813C986DA86B4E0EB2E03
:104C7000F12CEB86FC86CD86DE86CF86D88A198A13
:104C80001A8AEDB7FEB77297EDBFFEBFADB7BEB7DC
:104C9000119682E1F10101900D928A95E1F7C80128
:104CA0000E948814CDBFDEBF48E050E0B10186E528
:104CB00098EA0E944813C986DA86EB86FC86CD8680
:104CC000DE86CF86D88A198A1A8A4DB75EB74251D6
:104CD00051094DBF5EBFADB7BEB7119682E1F1017C
:104CE00001900D928A95E1F7C8010E948814F8019D
:104CF000EC51FF4F88E190E08083918331971082DF
:104D0000C8010E946313E091642AF091652A8AE841
:104D100095E182A393A387E295E1848F958FE0913B
:104D2000662AF091672A8DE895E1848F958F89EC4A
:104D300095E182A393A385E597E080A791A7E091F1
:104D4000942AF091952A80819181DC01ED91FC916A
:104D50000684F785E02D42E15AE760E070E00995AE
:104D60001092962A1092982A1092972A10929E2AB0
:104D700010929F2A10929C2A10929D2A8FEF9FEFEB
:104D80008093A02A9093A12A8093A22A9093A32A89
:104D90000E94490760932C2B70932D2B80932E2B10
:104DA00090932F2B1092292B1092A62A1092A52AAD
:104DB0001092A72A1092A82A10922A2B10922B2B1D
:104DC0001092A42A8FEA97E18093862A9093872AEB
:104DD00083E797E18093702A9093712A88E597E1A1
:104DE00080936E2A90936F2A8FE397E18093762ABF
:104DF0009093772A8AE197E18093742A9093752A99
:104E00000E944907609365297093662980936729FA
:104E1000909368298AE899E20E949A1961E070E00B
:104E20008AE00E94A305CDBFDEBF9E01245D3F4FF7
:104E30002BAB3CAB1AE6A12E18EAB12E09E7402EA7
:104E400008EA502EE0E2FE2EF7E2EF2E8091642A6F
:104E50009091652A0E94EC0D8091662A9091672AB4
:104E60000E94EC0D0091682A1091692A20917C29FA
:104E700030917D2960915B2970915C2962177307DD
:104E800009F4AFC08091512A9091522A0196D9F12C
:104E9000F90173E0EE0FFF1F7A95E1F7D801AE57E5
:104EA000BF4FCF0101968D939C9311971296079651
:104EB0008D939C93EE5BFF4FE00FF11F90E080E03D
:104EC00062E1629FA001639F500D11242091512A3D
:104ED0003091522AB0E0A0E02F3F320741F0220F7C
:104EE000331FD901AC5AB54D0D90BC91A02DA40F24
:104EF000B51FA80FB91FAF5ABF4F2C912193019630
:104F00008730910519F70E94950C80915B2990914B
:104F10005C2980937C2990937D290E94B30CC090DA
:104F2000962AB0E1BC1508F417C2E091942AF091DA
:104F3000952A80819181DC01ED91FC910084F185BD
:104F4000E02D0995892B09F407C28091392B8E7FBA
:104F50008093392BE091942AF091952A8081918158
:104F6000DC01ED91FC910284F385E02D0995182F69
:104F70008D3F09F4F1C180919E2A90919F2A00975C
:104F800009F0EAC21093992A0091972A802F0E9473
:104F9000FD160E940B17882361F017FD0AC00093CD
:104FA000992A10939A2A81E090E080939E2A909308
:104FB0009F2A1091992A812F0E94FD16813F09F4A2
:104FC00094C208F02BC2803B49F008F0A7C1803999
:104FD00029F0803A19F0803809F0A8C123E030E0C8
:104FE00086C28091532A8823A9F11092532A0E94E5
:104FF000B30C2091512A3091522AC8018F5B9F4FE8
:105000002F3F3207A9F4A0E1BAE2FC01805C9F4F78
:105010002D9121938E179F07D9F7F801EE57FF4F77
:1050200010821182329680E490E08083918377CF62
:10503000220F331FF901EC5AF54D20813181F9011E
:105040003C96DC01245B3F4F81918D93E217F3077F
:10505000D9F7E3CF8091512A9091522AF801EE5767
:10506000FF4F6F01A8014C575F4F4A018F3F9807D0
:1050700009F487C040915A29442309F482C044E2CC
:10508000E5E2F6EAD10101900D924A95E1F7FC01C3
:10509000EE0FFF1FEC5AF54D80819181AB01B3E01B
:1050A000440F551FBA95E1F7FA013196D601ED93F9
:1050B000FC93485F5F4FF40140835183E2E1E69F38
:1050C000A001E79F500D1124480F591FFA01EF5915
:1050D000FF4F608171816330710509F485C0A8F4C8
:1050E0006130710571F16230710509F46CC042E103
:1050F000429FF001439FF00D1124E80FF91FE35A7E
:10510000FF4F81818F93808167C06530710509F4FD
:10511000ABC008F48AC06630710549F7435A5F4F47
:10512000FA0120813181EDA5FEA590E080E0833079
:1051300091050CF46EC0821793070CF46EC0F082D8
:105140006DC0435A5F4FDA018D919C9162E678EA17
:10515000892B11F46AE578EA8DA59EA50E9430306E
:10516000ADA5BEA5F60180819181FC01EF5BFF4FEB
:10517000E00FF11F8D9181936BA87CA86A167B06C6
:10518000C9F7D4018D919C91F601208131812817B6
:10519000390709F4C4CED6018D909C9088169906E3
:1051A0000CF081C0F801E80DF91DDF01AF5BBF4FC6
:1051B00030812C9132137BC0BFEF8B1A9B0AF60112
:1051C00080829182E8CF435A5F4FFA0180819181BA
:1051D000009709F4BFCF9F938F93BF92AF926EA4B5
:1051E0006F927DA47F9237C0435A5F4FDA012D91B1
:1051F0003C91EDA5FEA590E080E0821793073CF47A
:10520000E0820196319687309105B9F7A9CFF082F7
:10521000F8CF821793070CF492CFE0820196319673
:105220008730910509F083CF9BCF435A5F4FDA0156
:105230002D913C91C901880F991F820F931F820DF8
:10524000931D9F938F93E2E7F8EAFF93EF937EA479
:105250007F926DA46F920E9437300F900F900F9045
:105260000F900F900F907CCF435A5F4FDA018D91D2
:105270009C916CE070E00E94C82E7F936F939C011C
:10528000220F331F820F931F820D931D9F938F93C5
:105290005F924F926EA46F927DA47F920E943730EE
:1052A000CDBFDEBF5DCF8815990509F438CEF80172
:1052B000E80DF91DDF01AF5BBF4F2C912083C401C6
:1052C00060E270E00E94C82E97FD079643E0959536
:1052D00087954A95E1F7482F440FB40197FE02C025
:1052E000615E7F4F35E0759567953A95E1F7362F0A
:1052F000330F330F330FC40168E070E00E94C82EF3
:10530000632F680F88ED99E20E94310CD6018D91D0
:105310009C91119701968D939C9301CE803D09F449
:10532000E4C008F06AC0803C09F4DFC08091392BEA
:1053300081608093392BE0916C2AF0916D2A30972F
:1053400009F0099510929E2A10929F2A10929C2A89
:1053500010929D2A1092972A80916929882309F436
:1053600044C00E944907609065297090662980902A
:105370006729909068296FA678AA89AA9AAA0091AD
:105380006129109162292091632930916429AB0130
:10539000BC0146195709680979090417150726073A
:1053A000370718F5D401C301800F911FA21FB31F47
:1053B0008093652990936629A0936729B093682903
:1053C0000E948E1780915D2990915E29A0915F299E
:1053D000B09160290196A11DB11D80935D29909324
:1053E0005E29A0935F29B093602980E090E0892B2B
:1053F00009F42CCD0E94000025CD803E09F4EECDAD
:10540000803F09F093CF20E830E020939C2A30932E
:105410009D2A1092972A8093A92A6DC0873F99F3FD
:1054200008F05CC0833F09F460C008F4D7CD863F24
:1054300009F07CCF8093A62A1092A52A1092A72A61
:105440001092A82A81E08093292B10929E2A109214
:105450009F2A10929C2A10929D2A8091A62A803918
:1054600039F48091A82A811103C080E88093A62A8C
:105470008091A62A8058813630F48091A52AC816DA
:1054800011F0C11002C00E9477039091A42A392F15
:10549000317090FF61CF892F8E7F09F45DCF8091AD
:1054A000A62A20E8280F213608F02AC12091A52A33
:1054B000C21619F031E0C11030E09695923009F42F
:1054C00018C1933009F419C1913009F045CF4091CA
:1054D000A82A6091A72A0E94C4163ECF8D3F08F4E7
:1054E000A9CF8E3F08F0A6CF21CF22E030E0209355
:1054F0009C2A30939D2A20919E2A30919F2A409188
:105500009C2A50919D2A4150510924173507E8F0F3
:105510008093A62A1F701F5F1093A52A80919A2A54
:105520008093A72A1092A82A81E090E080932A2BEA
:1055300090932B2B10929E2A10929F2A10929C2AB5
:1055400010929D2A8093292B88CF2F5F3F4F209365
:105550009E2A30939F2A00CF17FF0CC01D3F08F0F2
:105560004BC0183F08F04BC0103F09F457C0173F1D
:1055700009F454C02091992AFC01E659F54D203FC9
:1055800019F0273F09F073C017AF80909C2A9090C4
:105590009D2A9401215031098217930708F4A7C06E
:1055A0000091992A003F19F0073F09F062C010915D
:1055B000282B80EF8093282B8093A62A80E8809365
:1055C000A72A1092A82A1092A52A80E890E080933A
:1055D0002A2B90932B2B81E08093292B0E94770319
:1055E00087EF8093A92A1093AA2A82E090E0809303
:1055F0009E2A90939F2AB0CE1E3F08F4BBCF1093F3
:10560000A62A1092A72A1092A82A1092A52A81E011
:1056100090E080932A2B90932B2B94CF2091A92A52
:10562000203F19F0273F09F081CE9C012F5F3F4FAB
:105630008659954DFC0117AF80EF8093A62A2093E1
:10564000A72A3093A82A1092A52A20932A2B3093B8
:105650002B2B81E08093292B10929E2A10929F2A57
:1056600010929C2A10929D2A1092972AF6CE17A784
:105670008CCF802F0E94FD16182F8093A62A0E949F
:105680000B17882349F1802F8F708F5F8093A52A95
:1056900080919A2A8093A72A80919B2AF3E08F1603
:1056A000910409F080E08093A82A10929E2A10921B
:1056B0009F2A10929C2A10929D2A81E08093292B88
:1056C000103B39F060F4103921F0103A11F0103825
:1056D00059F60093972AC1CE1092A52AD9CF103D32
:1056E000C1F3103EB1F3103C09F0BECFF2CF0196EA
:1056F0007ECF332309F430CEEACE31112DCEE7CE62
:10570000E0E1E80FE03108F027CEF0E0E657F44D95
:105710000C94DC2EA02BF12BD22BC02BAC29AC2966
:105720009A2BAC299A2BAC299A2B9A2B9A2BAC2921
:105730009A2B9A2B682F84E99AE20E94B6160CCE17
:10574000C090A72AD090A82A21E8C216D10418F048
:1057500090E8C92ED12C0AE61AE2C8018A569A426C
:105760008C159D0508F0F8CDD801DF966C918091DD
:10577000942A9091952A0E94AC160F5F1F4FEDCF8F
:105780001091A72A63EF8091942A9091952A0E9404
:10579000AC16612F6F778091942A9091952A0E9480
:1057A000AC16DACD0091A82AB0E80B9F8001112435
:1057B0008091A72A082B62EF8091942A9091952AD4
:1057C0000E94AC16602F6F778091942A9091952A51
:1057D0000E94AC16000F012F001F110B1195602FB6
:1057E000D9CF8091A72AE0E18E9FC0011124807754
:1057F0001091A82A1F70182B61EF8091942A909124
:10580000952A0E94AC16612FC6CF8F929F92AF92BD
:10581000BF92CF92DF92EF92FF92CF93DF93EC0192
:10582000688179818A819B81611571058105910566
:1058300021F464E279ED8BE597E02DE133EF41E06F
:1058400050E00E94612C49015A019B01AC01A7EA7A
:10585000B1E40E94802C6B017C01ACEEB4EFA50199
:1058600094010E948E2CDC01CB018C0D9D1DAE1D80
:10587000BF1DB7FF03C00197A109B0488883998372
:10588000AA83BB839F77DF91CF91FF90EF90DF904A
:10589000CF90BF90AF909F908F9008950E94052C5D
:1058A000089584E098E20E94052C0895B0E0A0E0FD
:1058B0008093042890930528A0930628B093072886
:1058C0000895052E97FB1EF400940E94782C57FD36
:1058D00007D00E94932C07FC03D04EF40C94782C34
:1058E00050954095309521953F4F4F4F5F4F08950C
:1058F00090958095709561957F4F8F4F9F4F08953C
:105900000E94B52CA59F900DB49F900DA49F800D73
:10591000911D11240895B7FF0C94802C0E94802CB7
:10592000821B930B0895A1E21A2EAA1BBB1BFD013B
:105930000DC0AA1FBB1FEE1FFF1FA217B307E4076E
:10594000F50720F0A21BB30BE40BF50B661F771FC6
:10595000881F991F1A9469F76095709580959095A6
:105960009B01AC01BD01CF010895A29FB001B39F7F
:10597000C001A39F700D811D1124911DB29F700D58
:10598000811D1124911D08950E94D82C0C94C02DC6
:105990000E94B92D58F00E94B22D40F029F45F3FCB
:1059A00029F00C94A92D51110C94F42D0C94AF2DC9
:1059B0000E94D12D68F39923B1F3552391F3951BE0
:1059C000550BBB27AA2762177307840738F09F5F20
:1059D0005F4F220F331F441FAA1FA9F335D00E2E8D
:1059E0003AF0E0E832D091505040E695001CCAF7FA
:1059F0002BD0FE2F29D0660F771F881FBB1F2617BD
:105A000037074807AB07B0E809F0BB0B802DBF0193
:105A1000FF2793585F4F3AF09E3F510578F00C9462
:105A2000A92D0C94F42D5F3FE4F3983ED4F38695B2
:105A300077956795B795F7959F5FC9F7880F911D83
:105A40009695879597F90895E1E0660F771F881F6F
:105A5000BB1F621773078407BA0720F0621B730B22
:105A6000840BBA0BEE1F88F7E09508950E943D2D38
:105A70006894B1110C94F42D08950E94D92D88F0EA
:105A80009F5798F0B92F9927B751B0F0E1F0660F02
:105A9000771F881F991F1AF0BA95C9F714C0B13043
:105AA00091F00E94F32DB1E008950C94F32D672F2F
:105AB000782F8827B85F39F0B93FCCF38695779572
:105AC0006795B395D9F73EF490958095709561955B
:105AD0007F4F8F4F9F4F0895E89409C097FB3EF486
