:100000000C9477030C949F030C949F030C949F0310
:100010000C949F030C949F030C949F030C949F03D8
:100020000C949F030C949F030C949F030C949F03C8
:100030000C94741A0C949F030C942C1B0C94DD1BD1
:100040000C949F030C949F030C949F030C949F03A8
:100050000C949F030C949F030C949F030C949F0398
:100060000C949F030C949F030C949F030C949F0388
:100070000C949F030C949F030C949F030C94FE1A02
:100080000C94D81A0C949F030C949F030C949F0318
:10009000207E0102000000000000000000000000BF
:1000A00000000000F0000000000000003F00000021
:1000B00000000000F0F00000000000003F3F0000E2
:1000C000000000000080F080F080000000043F0489
:1000D0003F040000F0F0F0F0000000003F3F3F3F21
:1000E00000000000F0F0F0F0F00000003F3F3F3F64
:1000F0003F000000F0F0F0F0F0F000003F3F3F3F25
:100100003F3F0000F0F0F0F0F0F0F0003F3F3F3FE5
:100110003F3F3F00000080601008000000000F30EB
:100120004080000000081060800000000080403027
:100130000F000000008000C0008000000008051FC4
:1001400005080000000000C0000000000002021FBF
:10015000020200000000000000000000000090709B
:100160000000000000000000000000000002020289
:1001700002020000000000000000000000002070EB
:10018000200000000000008060180000C0300C0358
:1001900000000000C020101020C000000F10202020
:1001A000100F0000004020F0000000000020203F61
:1001B000202000006010101010E0000020302824E3
:1001C0002320000010101090503000001820212132
:1001D000211E00000000C020F00000000C0B0808E9
:1001E0003F080000F090909090100000192020200F
:1001F000201F0000C0201010100000001F2221212D
:10020000211E000010101010D030000000300C0330
:100210000000000060901010906000001C2221215E
:10022000221C0000E010101010E000001922222211
:10023000110F0000000080C0800000000000103995
:10024000100000000000808000000000000049391C
:1002500000000000000000804020000000020508AF
:10026000102000008080808080800000040404044E
:1002700004040000F0E0C080000000007F3F1F0F7A
:1002800007020000601010109060000000000037AE
:1002900000000000C020905050E000000F10272800
:1002A000282F0000C020101020C000003F020202D2
:1002B000023F0000F0101010A04000003F2121215B
:1002C000120C0000E0101010106000001F20202011
:1002D00020180000F010101020C000003F20202047
:1002E000100F0000F0101010101000003F2121210D
:1002F00020200000F0101010101000003F0101013C
:1003000000000000E0101010106000001F202022EC
:10031000123E0000F000000000F000003F0101016B
:10032000013F0000001010F0101000000020203FDE
:100330002020000000000010F010000018202020F5
:100340001F000000F0008040201000003F01020468
:1003500008300000F0000000000000003F202020D6
:1003600020200000F060808060F000003F0001016C
:10037000003F0000F0C0000000F000003F0001025C
:100380000C3F0000E010101010E000001F202020A3
:10039000201F0000F010101010E000003F020202C9
:1003A00002010000E010101010E000001F242428BB
:1003B000709F0000F010101010E000003F020206D5
:1003C0000A310000E01010101060000018212122F6
:1003D000221C0000101010F0101010000000003F50
:1003E00000000000F000000000F000001F202020AE
:1003F000201F0000F000000000F000000007383867
:100400000700000000F0000000F00000001F201CAA
:10041000201F000030C00000C0300000300C03037B
:100420000C30000000708000807000000000013E71
:10043000010000001010109050300000302C2221DC
:10044000202000000000F808080800000000FF80DD
:100450008080000018608000000000000000030C95
:1004600030C0000000080808F8000000008080800C
:10047000FF0000002010080810200000000000000D
:10048000000000000000000000000000808080806C
:100490008080000000000810200000000000000024
:1004A00000000000008080808000000019242424C7
:1004B000243F0000F0008080800000003F112020D9
:1004C000201F000000808080800000001F2020206E
:1004D000201100000080808000F000001F202020FC
:1004E000113F000000808080800000001F24242431
:1004F000241700000000E0101020000001013F015F
:100500000100000000808080008000006798A8A89B
:10051000A7400000F0008080800000003F01000044
:10052000003F0000000080B0000000000020203FDD
:10053000202000000000000080B0000000608080EB
:10054000807F0000F0000000800000003F040609EA
:1005500010200000000010F0000000000020203FEC
:10056000202000000080800080000000003F001F6D
:10057000003F000080008080800000003F010000FC
:10058000003F000000808080800000001F202020AD
:10059000201F00008000808080000000FF112020CC
:1005A000201F000000808080008000001F2020208D
:1005B00011FF000080008080800000003F010000EB
:1005C00000030000008080808000000011222424AD
:1005D000281100008080F0808000000000001F20B3
:1005E0002010000080000000008000001F2020205C
:1005F000103F0000008000000080000000030C306D
:100600000C0300000080000000800000001F201E7E
:10061000201F00008000000000800000310A040458
:100620000A31000080000000008000004F90909090
:10063000887F0000808080808080000020302C2215
:1006400021200000000000F0080800000000027DEA
:1006500080800000000000F800000000000000FFA3
:1006600000000000000808F0000000000080807D0D
:1006700002000000300810204030000000000000A0
:10068000000000000000000000000000000000006A
:100690000000010101000000020300000000010051
:1006A0000001020304050607030001020001020322
:1006B000020304050405060705050000000000000C
:1006C00000000202020203030303050505050303FC
:1006D0000303020101020408102040800801020403
:1006E000010204080408102010204080061D112477
:1006F0001FBECFEFCDBFDFE3DEBF18E2A0E0B8E260
:10070000EBE8F2E602C005900D92AE30B107D9F7E2
:100710002BE2AEE0B8E201C01D92A13DB207E1F7C5
:1007200013E0C7E7D3E004C02197FE010E94502CDC
:10073000C637D107C9F70E94D01E0C9454300C94D0
:10074000000080E008950F931F93CF93DF9307EB92
:100750001BE2D0E0C0E08091712B9091722BC81702
:10076000D9076CF4D8018D919D918D01DC01ED913B
:10077000FC910084F185E02D09952196ECCFDF9165
:10078000CF911F910F9108951F93CF93DF93CDB712
:10079000DEB72597CDBFDEBF1C8221E02B83898386
:1007A0009A83E0913B2BF0913C2B11891D82A09103
:1007B0003B2BB0913C2BE0913F2BF091402B9E01C5
:1007C0002F5F3F4F50964C916FE08BE39BE2099572
:1007D0008D818F5F8D83811750F32596CDBFDEBF4E
:1007E000DF91CF911F910895E091CC29F091CD290F
:1007F000309719F087E09AE209958091082A823FA4
:1008000009F4BAC090F5803C09F499C0B8F4803975
:1008100009F44FC040F4E091D029F091D1298038FB
:1008200009F44BC00895803A09F484C0E091D629B8
:10083000F091D729803B09F440C00895803E09F427
:1008400062C040F4E091DA29F091DB29803D09F49F
:100850007AC00895803F09F47DC0E091E029F091CD
:10086000E129813F09F49BC008958A3FC1F1A8F4B2
:10087000863F09F499C040F4E091E429F091E5291C
:10088000833F09F48CC00895883F09F1E091EC2979
:10089000F091ED29893FF9F008958C3F51F120F155
:1008A0008E3F61F1E091F429F091F5298F3F99F0A5
:1008B0000895E091D229F091D329309709F479C0B5
:1008C00040910A2A6091092A8091072A0994E091AF
:1008D000E829F091E929309709F46BC00994E09177
:1008E000EA29F091EB29F7CFE091EE29F091EF2979
:1008F000F2CFE091F029F091F129EDCFE091F229CA
:10090000F091F329E8CFE091DC29F091DD293097CF
:1009100009F44FC060910A2A20E8629FB0011124B7
:1009200060787F738091092A8F77682B705280914D
:10093000072A0994E091D429F091D529BECFE091FE
:10094000D829F091D9293097A1F16091092A809195
:10095000072A0994E091DE29F091DF29309749F1C7
:100960006091092A70910A2A6138710510F060E8D7
:1009700070E08BE09AE20994E091E229F091E3299A
:100980003097B9F080910A2A20E8829FC001112493
:1009900080789F732091092A2F77822B09943097B2
:1009A00041F08091092A0994E091E629F091E72924
:1009B00092CF08959B01DC011896ED91FC9141E0E6
:1009C00067E10994FC0154894589252F30E0842F83
:1009D00090E0821B930B541710F0CF960895019767
:1009E0000895FC0192898389981761F0A389AE0F5D
:1009F000BF2FB11D59968C9193899F5F9F73938BE5
:100A000090E008958FEF9FEF0895FC01928983890C
:100A1000981731F08389E80FF11D818D90E00895DA
:100A20008FEF9FEF0895FC0192892389892F90E031
:100A3000805C9F4F821B91098F7399270895CF93F4
:100A4000DF93EC01E881F9810284F385E02D0995BB
:100A5000EC85FD8586818F738683EC85FD85858198
:100A60008F7585838B898A8B198ADF91CF91089541
:100A7000CF93DF93FC0194898589C485D58598132C
:100A800006C08D818F7D8D83DF91CF910895A589DB
:100A9000AE0FBF2FB11DA75ABF4F2C91858990E093
:100AA00001968F739927858B80E48C83A485B58507
:100AB00012962C93A485B58514968C91149785FF76
:100AC000FBCF948985899813DFCF15968C91159764
:100AD0008F7D15968C9387898823B1F2808D8093C2
:100AE0001301178AD1CFEF92FF920F931F93CF93E9
:100AF000DF93EC0181E0898B9C898D8998131CC060
:100B0000AC85BD8514968C91149785FF15C01296FF
:100B10006C93AC85BD8580E414968C93EC85FD8543
:100B200085818F7D858381E090E0DF91CF911F915A
:100B30000F91FF90EF9008958091110180FF08C000
:100B400080911301888F8E898093130181E08F8BB0
:100B5000F62E0C8910E00F5F1F4F0F731127E02E48
:100B60008D898E110CC00FB607FE05C0EC85FD8582
:100B7000858185FDF5CFCE010E943805F1CFEC8946
:100B8000EC0FFD2FF11DE75AFF4FF0820C8BEC8527
:100B9000FD8585818062C6CFCF93DF93FC012189DB
:100BA0002223F9F0EC018091110180FF08C08091AF
:100BB0001301808F86898093130181E0878BEC85F8
:100BC000FD85858185FD03C0848186FD0AC00FB641
:100BD00007FE03C0858185FDF2CFCE010E94380556
:100BE000EECFDF91CF9108958CE99AE20E94130530
:100BF00021E0892B09F420E0822F089580E090E025
:100C0000892B49F080E090E0892B29F00E940000B8
:100C100081110E94000080E090E0892B29F00E9461
:100C2000F40581110C940000089590E0FC01EE524F
:100C3000F94F24912F3F11F1FC01E854F94FA49191
:100C400030E2A39FD0011124BC5F6130710519F41B
:100C500011962C930895FC01E256F94FE491EF3F71
:100C600071F0CD014096E80FF92FF11D9FB7F89470
:100C700012962C938081886080839FBF0895F0E056
:100C8000E0E0F4CF90E0FC01EC57F94FE491EE2363
:100C900021F1E13021F008F1E630B0F008958256FC
:100CA000994FFC0184914091010A8C5F21E030E072
:100CB000B90102C0660F771F8A95E2F7CB018095D4
:100CC00084238093010A089570E1E79FF0011124C5
:100CD000E05AF54F81818F7E81830895FF920F93B3
:100CE0001F93CF93DF93C82FD0E0FE01EE52F94F50
:100CF000F4909FEFF916B1F08B018A3110F40E9445
:100D00004206FE01E854F94FA49180E2A89FD00169
:100D10001124BC5F8C918F21A1F00115110541F4C4
:100D20001696FC92DF91CF911F910F91FF9008953D
:100D30000230110519F41796FC92F4CF1596FC9227
:100D4000F1CFFE01E256F94FE491109779F0EF3FB1
:100D500069F05096EA0FFB2FF11D9FB7F894808140
:100D6000012B39F4877F80839FBFDCCFF0E0E0E088
:100D7000F4CF8860F8CF1F93CF93DF938A31E8F4E4
:100D8000C82FD0E0FE01EE52F94F14911F3FA9F099
:100D90000E944206C854D94FFE01C491F0E2CF9F91
:100DA000E0011124DC5FE885E12381E090E009F4B3
:100DB00080E0DF91CF911F91089580E090E0F9CF1E
:100DC0008A3110F40C946E0608958A3110F40C9454
:100DD000150608958F929F92AF92BF92EF92FF9265
:100DE0000F931F93CF93DF93EC014A015B01E22E37
:100DF0008989882339F0E881F9810088F189E02D1B
:100E0000CE01099598898091E205892B8093E205AE
:100E1000FFB6F89460910028709101288091022813
:100E20009091032823E0660F771F881F991F2A954A
:100E3000D1F7A50194010E94072A2F5F3F4F4F4F22
:100E40005F4F5695479537952795EC85FD858681AB
:100E50008D7F8683EC85FD8586818683198A8091C6
:100E60002311E82F880FFF0BDF01BC5F0E94FF29D1
:100E70000C851D85AF01F7FF03C0519541955109C0
:100E800020E034E0241B350B032E000C440B550BE3
:100E90000E94D529F80120873187EC85FD85E782FE
:100EA000EC85FD858681806C8683EC85FD8585815A
:100EB000806885838E8562E070E00E94E5068F85FC
:100EC00061E070E00E94E0068F8561E070E00E94C2
:100ED000E506FFBEDF91CF911F910F91FF90EF903C
:100EE000BF90AF909F908F900895CF93DF938FB76F
:100EF000F894209178293091792940917A2950915C
:100F00007B29E0918A0A9091860A90FF06C02F5FA4
:100F10003F4F4F4F5F4FE0918A0A8FBFA0917629D4
:100F2000B0917729C0917429D09175290E94F42934
:100F3000EC9F9001ED9F300D1124620F731F811DF6
:100F4000911DDF91CF9108958F929F92AF92BF92A2
:100F5000CF92DF92EF92FF924B015C010E947507E6
:100F60006B017C01A8EEB3E0A50194010E94F42975
:100F7000C60ED71EE81EF91EC616D706E806F906E5
:100F800018F40E947507F8CF0E9475076C157D054F
:100F90008E059F05C8F3FF90EF90DF90CF90BF9034
:100FA000AF909F908F9008952FB7F894609170291B
:100FB0007091712980917229909173292FBF0895A2
:100FC0000C9400000895662329F06A3019F0862FEA
:100FD00090E008958FEF9FEF0895AF92BF92CF9268
:100FE000DF92EF92FF920F931F93CF93DF936C01E9
:100FF0007B018B01040F151FEB015E01AE18BF08CA
:10100000C017D10759F06991D601ED91FC9101907B
:10101000F081E02DC6010995892B79F7C501DF9193
:10102000CF911F910F91FF90EF90DF90CF90BF90E5
:10103000AF90089581E008950F9391E0909359291E
:101040001092582960935629709357294093552937
:101050002093542910925329109252290093512918
:10106000880F8093502923E030E044E050E08091E5
:101070005529882341F020934E2930934F298091A0
:1010800050298E7F0BC080915429882351F04093C2
:101090004E2950934F298091502981608093A70851
:1010A00008C080915529811104C08091542988235A
:1010B00011F3809158298823E1F3809158298330D6
:1010C000B1F280915429882321F0809152290F9107
:1010D00008959091582981E09130C9F780E0F7CFC9
:1010E000E0EAF8E091859066918722E030E0209375
:1010F0004E2930934F298093402910923F2908951B
:1011000081E080933F291092402993E09093AA08B0
:101110009091AB0891FF10C010924C29E0913D29AD
:10112000F0913E29099580934B2985E090E08093CA
:101130004E2990934F29089510924D2980934A2962
:1011400086E090E0F4CF8F929F92AF92BF92CF92C1
:10115000DF92EF92FF92CF93DF9360342DE072071E
:1011600023E08207910508F44EC0611525E372075C
:101170002CE08207910508F43FC060387F4482412B
:10118000910508F040C0C8E7D0E020E432E44FE029
:1011900050E08090002890900128A0900228B09004
:1011A0000328C501B4010E94072A69017A018AE077
:1011B000C81AD108E108F108DE01A50194010E94D6
:1011C000F42920E03AEC4AE95BE30E94072AC21ABC
:1011D000D30AE40AF50AF694E794D794C794C09228
:1011E000A608DF91CF91FF90EF90DF90CF90BF9056
:1011F000AF909F908F900895CCE2D1E020E83AE143
:1012000046E050E0C6CFC8EED3E020EA36E841E041
:1012100050E0BFCF60933B2970933C2908956093C1
:10122000392970933A290895E0913B29F0913C299E
:10123000309741F010923829109237290995809102
:101240003729089580E00895E0913929F0913A29ED
:10125000309759F03091362920913529321728F0EE
:101260001092362980933529099408950895E091C4
:10127000362980913529E81730F4F0E0EB54F74D2A
:10128000808190E008958FEF9FEF08959091362927
:10129000809135292FEF3FEF981748F4E92FF0E0C0
:1012A000EB54F74D208130E09F5F90933629C901C0
:1012B00008958091352990913629891B990B0895BD
:1012C000CF92DF92EF92FF920F931F93CF93DF9312
:1012D0007C018A01EB016B01C40ED51ECC15DD0526
:1012E00051F06991D701ED91FC910190F081E02DD1
:1012F000C7010995F3CFC801DF91CF911F910F91DD
:10130000FF90EF90DF90CF9008952091372927FF2D
:1013100008C021E030E0FC012283338390E080E0CC
:10132000089580913829E82FF0E0EB5CF74D608359
:101330008F5F809338298093372981E090E008956A
:10134000DC01ED91FC910688F789E02D61E00994BC
:101350000F9380914E2990914F290197A1F480918C
:101360005929811112C0062F20E04091372965E3E9
:1013700078E2809134280E941C081092382910923B
:1013800037290F91089580E0F8CF81E0F6CF609380
:10139000342810923829109237290895DC01ED91F4
:1013A000FC91028CF38DE02D21E009940F9385EBE5
:1013B00098E2809341299093422980914E299091FF
:1013C0004F290197C1F480915929811116C0FA0162
:1013D0004138510510F0E0E8F0E0022F862F2E2F63
:1013E00040E070E060E00E941C0810923629809373
:1013F00035290F91089580E0F8CF81E0F6CFCB0139
:10140000BA010C94A308E0EAF8E01382168281E0A6
:1014100085831486118610924E2910924F290895C3
:1014200010923629109235291092382910923729B6
:1014300080914E2990914F29892BD9F482E090E038
:1014400080934E2990934F2910924D2910924C2948
:1014500010923F29109240291092332810924A2965
:10146000660F6093AC0881EE8093A90881E08093B9
:10147000A30884E199E080933D2990933E2985E378
:1014800098E2809343299093442984E299E08093E1
:1014900048299093492985EB98E2809345299093B8
:1014A000462980E8809347290895109236291092A2
:1014B0003529109238291092372980914E29909120
:1014C0004F29892BF9F48091E30580618093E3052E
:1014D00081E090E080934E2990934F2910925229F9
:1014E00010925329109259291092582981EC809317
:1014F000A30860EA76E881E090E00E94A30881E01A
:101500008093A5080895DC011A96ED91FC9130E0D6
:1015100020E00994DC011696ED91FC9130E020E08A
:1015200040E069E10994DC011696ED91FC9130E010
:1015300020E040E068E109949A01DC011696ED9103
:10154000FC91462F67E10994EF92FF920F931F934E
:10155000CF93DF931F92CDB7DEB77C018B01D8010B
:101560006C91673129F150F46531A0F40F90DF914F
:10157000CF911F910F91FF90EF9008956A3118F16C
:101580006E3FA1F7F8014181498369E2C7010E94DA
:10159000830A0BC0F80141814983D7011696ED916A
:1015A000FC9130E020E0C70109950E5F1F4FD7CFB7
:1015B000F80181818983AE014F5F5F4F61E0C70110
:1015C0000E949C0AF2CF0F5F1F4FD7011696ED9134
:1015D000FC9130E020E040E0C7010995C0CF462FE4
:1015E000DC011696ED91FC9130E020E066E1099473
:1015F000462FDC011696ED91FC9130E020E065E18C
:101600000994EF92FF920F931F93CF93DF93EC0116
:10161000042F79016D3009F446C050F46B30C9F1E4
:10162000693009F49FC06A3009F465C080E046C0A3
:101630006E3009F452C06F3099F70E94930AF70197
:101640001381110F110F110F6C89160F60E4CE0179
:101650000E94F80A612F62956F706061CE010E944E
:10166000F80A612F6F70CE010E94EF0AF7016481C2
:10167000606BCE010E94EF0AF701408151816281C7
:10168000660F660F660FCE010E949C0A0150A1F7FB
:101690002EC060E071EA442311F06BEF70EACE01D6
:1016A0000E94A40A0AC0411110C064EF70EA0E94AF
:1016B000A40AE881F98182898C8B81E0DF91CF9146
:1016C0001F910F91FF90EF9008956DEE70EA0E94C8
:1016D000A40AE881F9818389EFCF0E94930A61E827
:1016E000CE010E94F80A602FCE010E94EF0ACE01BF
:1016F0000E948A0AE2CFEA85FB8530E020E040E0E4
:1017000068E2CE010995EE81FF8130E020E040E003
:1017100064E1CE01099541E06BE4CE010E94830AA9
:10172000E881F981448169E2CE010E94830A40E0A8
:101730006BE4CE010E94830AE881F981448169E269
:10174000CE010E94830A41E06BE4CE010E94830A2D
:10175000E881F981458169E2CE010E94830A65E052
:1017600071EA9DCF8AE391EA888399831C8AA5CF89
:10177000DC011896ED91FC9130E020E040E069E159
:101780000994DC011896ED91FC9130E020E040E0F6
:1017900068E10994CF93DF931F92CDB7DEB76983D9
:1017A000BE016F5F7F4F0E94DA040F90DF91CF91EF
:1017B0000895EF92FF921F93CF93DF93EC01162FC2
:1017C0007A010E94C10B60E4CE010E94CA0BE88539
:1017D000F9859701412F67E1CE010995CE01DF918F
:1017E000CF911F91FF90EF900C94B80BEF92FF9266
:1017F0001F93CF93DF93EC01142F7901663181F1B0
:1018000038F4643109F44BC0653179F080E022C0CE
:101810006831C9F150F16931C9F7809132288823C4
:1018200091F1CE010E94B80B2EC0809132288823FE
:1018300019F0CE010E94B80BCE010E94C10B60E0EE
:10184000CE010E94CA0B612FCE010E94CA0B81E01B
:1018500080933228DF91CF911F91FF90EF900895F0
:10186000642F0E94CA0B81E0F5CF80913228882333
:1018700019F0CE010E94B80BA701193138F4612F7D
:10188000CE010E94D90B10923228EDCF68E1CE0133
:101890000E94D90B185188E1E80EF11CEDCF8E891A
:1018A0008F3F11F488E78E8BE885F9859701412FEA
:1018B00064E1CE01DF91CF911F91FF90EF900994E9
:1018C000CF93DF93EC01A889B989FD01349131965A
:1018D0009491319684911396FD01A4916317A8F118
:1018E000961798F1631B770B8A9FE02D1124E69FD2
:1018F000C001E79F900D1124280F392F311D83E07F
:10190000220F331F8A95E1F7C9010496DA01245F9B
:101910003F4FE889F989E80FF91FE491ED930196AB
:1019200082179307B1F78D89882361F0FA019A0134
:10193000285F3F4F8191DF01119780958C932E177F
:101940003F07C1F7DF91CF910895FA01CA010896C8
:101950001192E817F907E1F7E6CF4F925F926F9285
:101960007F928F929F92AF92BF92CF92DF92EF922F
:10197000FF920F931F93CF93DF93CDB7DEB72D97D1
:10198000CDBFDEBF7C01C62ED42EB22EDC01509618
:101990008D919C91FC013296149131960491512EB7
:1019A000560E040F81E0860F581608F411E0712CD2
:1019B000FE0131964F0144244394672CAC2C262D14
:1019C000A4016B2DC7010E94600CAC86DD864B869E
:1019D00089869A86D7011496ED91FC919E01275F26
:1019E0003F4F41E06FE0C70109956394A394A514AC
:1019F00030F3D394710ED01600F32D96CDBFDEBF19
:101A0000DF91CF911F910F91FF90EF90DF90CF90DA
:101A1000BF90AF909F908F907F906F905F904F900E
:101A20000895EF92FF920F931F93CF93DF93E82EC9
:101A3000E0914B2BF0914C2B3296C4911092532B8A
:101A40008B01D0E0F12CF80161918F01E0913D2BE9
:101A5000F0913E2B8BE39BE209958F3F980771F045
:101A60008E3F2FEF920779F3282F4E2D6F2D8BE3AA
:101A70009BE20E94AD0CFC0EDF5FE5CF8D2FDF9166
:101A8000CF911F910F91FF90EF90089530917C2995
:101A900020917D29832F922F64E070E00E943C2CDE
:101AA000482F440F632F722F77FF02C06D5F7F4F67
:101AB0007595679575956795660F660F660F2EE3AA
:101AC0008BE39BE20C94AD0C30917C2920917D2915
:101AD000832F922F64E070E00E943C2C482F440F2B
:101AE000632F722F77FF02C06D5F7F4F75956795EB
:101AF00075956795660F660F660F20E28BE39BE294
:101B00000C94AD0CCF93DF93EC01683189F130F484
:101B1000643199F0673151F080E005C06931B9F165
:101B20006032D1F781E0DF91CF91089550E0B901A3
:101B30008EE799E20E946009F5CF8C859D85AE8580
:101B4000BF85892B8A2B8B2B71F4E881F981A585C0
:101B5000B0E020EA36E841E050E00E94F4296C87CA
:101B60007D878E879F878EE799E20E94550ADACF9C
:101B70006C857D858E859F850E94A3086E8970E0A7
:101B8000759567958EE799E20E94C709CBCF8EE7DE
:101B900099E20E94A009C6CF0F931F93CF93DF93C2
:101BA0008C016C32C0F46A3208F040C0683269F1CE
:101BB000693209F44BC080E06034C8F16F73F801FA
:101BC000E60FF11D868D8F3F89F1603108F058C016
:101BD000642F70E017C06D3209F43FC060F384EBEE
:101BE000860F823040F7C62FCF73C00FD12FD11D83
:101BF0008E8D61E070E041113EC00E94E50670E00C
:101C000060E08E8D0E94E00611C0025E1F4FD0E0A2
:101C1000F80181918F018F3F31F061E070E0D031A8
:101C200058F40E94E506DF5FD63191F781E0DF913D
:101C3000CF911F910F9108950E94E50661E070E039
:101C4000F801319780810E94E006EDCF642F70E0AB
:101C500090E080E00E94A407E9CF85E090E0433067
:101C600010F082E090E0880F991F880F991F059768
:101C70000197F1F7DBCF0E94E50661E070E0C1CF8C
:101C80000E94BB0621E0892B09F420E0F801218F96
:101C9000CDCF1F93CF93DF93EC01EC89FD8949AD44
:101CA0006A3059F43396E491E40FE9AF18AE81E05D
:101CB00090E0DF91CF911F910895262F32961491D5
:101CC00068AD04960E94AD0CE8ADE10FE8AFEFCF30
:101CD000CF92DF92EF92FF920F931F93CF93DF93F8
:101CE000EC010E94D4070D851E852F853889AB0134
:101CF000BC01401B510B620B730B8F8190E0B0E075
:101D0000A0E0481759076A077B0708F429C10E9419
:101D1000D4076D877E878F87988BEE80CE2CD12C51
:101D20008A810E94BB067C0188810E94BB068C01CF
:101D300089810E94BB06EC24FD24EE0CFF1CEE0CF6
:101D4000FF1C000F111F082B0E290B838C81902F75
:101D50009827937009F45FC094E0899F9001112443
:101D6000802F8370822B8C838B3409F050C08FEFCF
:101D7000898F8D8110E01595079515950795082792
:101D800000FF1AC00E94D40709891A892B893C894F
:101D9000AB01BC01401B510B620B730B888590E0BB
:101DA000B0E0A0E084179507A607B70758F48D8127
:101DB00080FD33C081E08D830E94D407698B7A8BCC
:101DC0008B8B9C8B8D81833009F477C040F5882301
:101DD00009F44EC0813009F474C0898D9A8D811147
:101DE000C1C0911187C01B8E9B8D9111CDC09A8D62
:101DF000933009F481C0943009F485C0DF91CF910C
:101E00001F910F91FF90EF90DF90CF90089587384A
:101E100011F481E0ADCF198EACCF86E0CCCF843009
:101E200051F18630D1F614E01D8383E08A8F8CA1B6
:101E30009DA1892BB1F00E94D407CD88DE88EF8860
:101E4000F88CAB01BC014C195D096E097F098B85CB
:101E50009C85B0E0A0E0481759076A077B0708F4A3
:101E60001A8F0E94D4076D8B7E8B8F8B988FB5CF86
:101E700087E08A8FB2CF8A8D84508230C0F40E946E
:101E8000D4070D891E892F89388DAB01BC01401BF9
:101E9000510B620B730B89859A85B0E0A0E0841723
:101EA0009507A607B70718F41D8286E0E2CF8A8D52
:101EB000833009F092CF85E0DCCF87E08D831A8EE6
:101EC0008CCF93E09D839A8D9650923090F282E071
:101ED000D0CF95E09B8FEC8DFD8D309709F452C0EB
:101EE000099581E081CF963028F097E09B8FE8A19B
:101EF000F9A1F3CF80E078CF92E09B8FEAA1FBA11C
:101F0000309729F47BCF83E08B8FECA1FDA109955D
:101F100081E074CF91E09B8FEEA1FFA1F1CF9430CF
:101F200041F49A8D913009F069CF9B8FEAA5FBA50A
:101F3000E7CF963051F49A8D9150923008F05ECFF1
:101F400091E09B8FECA5FDA5DBCF973009F056CF34
:101F50009A8D913009F052CF9B8FEEA5FFA5D0CF7F
:101F600080E04CCF992309F4B4CF2CEF290F223015
:101F700020F02B8D263009F0B6CF96E09B8FEE8DAA
:101F8000FF8DABCF9B8D80E02EEF290F223038F6EE
:101F90009A8D923009F4BECF963009F02FCF94E09D
:101FA0009B8FE8A5F9A5ACCFCF93DF936230710585
:101FB00009F45FC034F46130710549F1DF91CF91CC
:101FC00008956330710509F471C064307105B1F78B
:101FD000FC01EC51FF4F28E130E020833183DC012C
:101FE000AD56BF4F21E030E02D933C938B559F4F72
:101FF000DC018D919C918230910504F348E1489F6A
:102000009001499F300D112420833183D7CF81590E
:102010009F4FDC01CD91DC9181E0209709F480E0B5
:102020008093692970E060E084E10E946E0670E0B0
:1020300060E081E10E946E0670E060E085E10E9450
:102040006E0670E060E088E00E946E0670E060E07E
:102050008EE00E946E06CD2B09F4B0CF0E94D4070B
:102060006093652970936629809367299093682906
:10207000A5CF20916929222309F4A0CF8F579F4F24
:10208000FC0120813181032E000C440B550B64ECC4
:1020900079E080E090E00E94D52920936129309377
:1020A0006229409363295093642988CFFC01EC5145
:1020B000FF4F28E130E020833183DC01AB55BF4F77
:1020C00041E050E04D935C938D569F4FDC016D9144
:1020D0007C91623071050CF471CFC9010E943C2CD7
:1020E000608371836BCF8C519F4FFC0120813181C4
:1020F000032E000C440B550B60915D2970915E29F5
:1021000080915F29909160290E94072A61157105CD
:102110008105910529F461E070E084E10C946E067C
:10212000613071058105910519F470E060E0F5CF2B
:102130000895CF93DF93FC01E35AFF4F2081318153
:102140006217130669F44D3358F4EC01EC57FF4F56
:1021500070E060E080810E94E006CD51DF4F188280
:10216000DF91CF910895FC01ED56FF4F623071056C
:10217000A1F4108211826630710531F1673071056A
:1021800059F4FC01E753FF4F208131817296808121
:102190009181821793071CF10895DC01AF57BF4F5F
:1021A0001D921C926330710521F720813181232B10
:1021B00099F3FC01EC51FF4F8C5B9E4F2DE3219373
:1021C0008E179F07E1F70895FC01E552FF4F20812C
:1021D000318172978081918128173907ECF620832D
:1021E0003183DACF4F925F926F927F928F929F925C
:1021F000AF92BF92CF92DF92EF92FF920F931F9315
:10220000CF93DF93EC01FC01E159FF4F0081118175
:1022100080905D2990905E29A0905F29B090602900
:1022200083E0880E911CA11CB11CE459FF4F8081F2
:102230009181092E000CAA0BBB0B881A990AAA0AD5
:10224000BB0A86E0809F9001819F300D1124032EF0
:10225000000C440B550BC501B4010E94072A6C0FFA
:102260007D1F6C517F4FFB018081882379F0FE0137
:10227000EF51FF4F61E070E080810E94E006C35B98
:10228000DF4F88829982AA82BB8232C0C501B40125
:1022900026E030E040E050E00E94072AFE01672B74
:1022A000682B692BB1F5EF57FF4FC080D180729634
:1022B000808191817801E81AF90A2801012E000C29
:1022C00066087708CA01B901A30192010E94072A92
:1022D0006E0D7F1D6C9DC0016D9D900D7C9D900DC0
:1022E0001124B8010E943C2C8C159D050CF4BFCF25
:1022F000DF91CF911F910F91FF90EF90DF90CF90E2
:10230000BF90AF909F908F907F906F905F904F9015
:102310000895E35BFF4F80819181881A990AE45800
:10232000FF4F808191818816990611F7CF51DF4FB9
:1023300070E060E08881DF91CF911F910F91FF9055
:10234000EF90DF90CF90BF90AF909F908F907F9055
:102350006F905F904F900C94E006CF93DF93EC0169
:10236000FC01EF51FF4F70E060E080810E94E006C9
:10237000CD51DF4F1882DF91CF9108951F93CF93F6
:10238000DF93FC01E35AFF4F20813181621713066E
:1023900071F5EC01EC57FF4F61E070E080810E9425
:1023A000E006FE01ED51FF4F11E01083FE978081A2
:1023B0009181892BE1F0F6978081918146E0489FD9
:1023C0009001499F300D1124032E000C440B550B36
:1023D00060915D2970915E2980915F2990916029BB
:1023E0000E94072AC60FD71FCC51DF4F1883DF91F9
:1023F000CF911F910895FC01E954FF4F643071059E
:1024000019F4108211820895DC01AB55BF4F1D9263
:102410001C9265307105A9F720813181232B49F089
:10242000FC01EC51FF4F8C5B9E4F1192E817F907AE
:10243000E1F70895DC018D919C91DC01ED91FC9117
:102440000190F081E02D09946D3F48F46A3F10F44B
:10245000683F39F4FC01808191810C941A126E3F1F
:10246000C8F708951F93CF93DF93813E30F5215035
:10247000203168F587FF2BC0D42F162FC82F622F6D
:10248000682B8091F6299091F7290E941A12612FEA
:102490006F778091F6299091F7290E941A12CF7ECA
:1024A000C03CA9F06D2F6F778091F6299091F729A4
:1024B000DF91CF911F910C941A12883F40F0682F42
:1024C00086EF99E2DF91CF911F910C942412DF9156
:1024D000CF911F91089587FF0AC09CE0980F92301A
:1024E00030F08D3F21F0803F18F4807F089580E028
:1024F0000895982F9F7E282F2F7C203839F0803E1A
:1025000029F081E0903C19F080E0089581E0089581
:1025100080916929811115C00E94A30380915D29D2
:1025200090915E29A0915F29B09160290196A11D2B
:10253000B11D80935D2990935E29A0935F29B0938C
:1025400060290895242FE091B42BF091B52BEF3F33
:10255000FE07E1F0EE0FFF1FE954F44DA081B181B9
:102560001097A1F0662391F012964D915C9113970C
:102570006417150609F054F4ED91FC91119704804D
:10258000F581E02D462F682FCD0109940895242F61
:10259000E091B42BF091B52BEF3FFE0791F0EE0FD9
:1025A000FF1FE954F44DA081B181109751F0ED91D6
:1025B000FC9111970280F381E02D462F682FCD0109
:1025C00009940895242FE091B42BF091B52BEF3F9F
:1025D000FE0791F0EE0FFF1FE954F44DA081B18189
:1025E000109751F0ED91FC9111970190F081E02D41
:1025F000462F682FCD0109940895DC01ED91FC91DF
:102600000684F785E02D23E030E00994DC01FB012E
:1026100030E020E09D9191110CC0FB01E20FF31F0F
:1026200080E29F01261B370B241735074CF481935A
:10263000F8CF91932F5F3F4F4217530759F70895F3
:102640000895EF92FF920F931F93CF93DF93CDB72F
:10265000DEB7C45ED109CDBFDEBF6091712B709132
:10266000722B683071050CF075C0FB01EE0FFF1F77
:10267000E954F44D8083918320E831EA29833A8339
:10268000FC01228133812B833C8328E03496DE01D8
:10269000159601900D922A95E1F721E4FC013C96F4
:1026A000DE011D9601900D922A95E1F7FC01E35B96
:1026B000FF4F008111812281338162960CAF1DAFE3
:1026C0002EAF3FAF62979C012F5A3F4FAE014E5A3B
:1026D0005F4F7C01F1EEEF0EF11C12E1F901DA011E
:1026E00001900D921A95E1F72E5E3F4F4E5E5F4FBF
:1026F0002E153F0591F7F9012081CE51DF4F288338
:10270000C25ED040FC01EE51FF4F2081CD51DF4F22
:102710002883C35ED0408D519F4FFC018081CC51F6
:10272000DF4F8883C45ED04083E0660F771F8A95B1
:10273000E1F76C58744D47E050E0CE0105960E94D9
:1027400006138091712B9091722B01968093712BBF
:102750009093722BCC51DF4FCDBFDEBFDF91CF9175
:102760001F910F91FF90EF9008958F929F92AF92DB
:10277000BF92EF92FF920F931F93CF93DF93EC01E1
:10278000A22F413009F477C0FC01E35AFF4F80814A
:1027900091816817190609F06EC04150550B82E10E
:1027A000849FF001859FF00D1124EC0FFD1FEF5960
:1027B000FF4F80819181019709F45DC080917C2950
:1027C00090917D294817590709F44EC040935B2921
:1027D00050935C2910925A2900915B2910915C2931
:1027E00022E1209FC001219F900D11248C0F9D1F7D
:1027F000FC01E75AFF4F80809180092C000CAA0849
:10280000BB087C012DE5E20EF11C855A9F4FFC01AF
:1028100020813181032E000C440B550B28193909F6
:102820004A095B09B0E00E94F4292FE730E040E05C
:1028300050E00E94D529820E931EA41EB51EF701FA
:1028400080829182E881F9810680F781E02DB801CC
:10285000CE01DF91CF911F910F91FF90EF90BF902C
:10286000AF909F908F90099480915A298111B4CF95
:1028700081E080935A29DF91CF911F910F91FF90B2
:10288000EF90BF90AF909F908F900895EF92FF923E
:102890001F93CF93DF93CDB7DEB76297CDBFDEBF77
:1028A000DC0112962D913C91283031050CF049C085
:1028B00042E1429FD001439FB00D1124A80FB91FE0
:1028C000AF5ABF4FFE017A96542F01900D925A9540
:1028D000E1F7FE017A96DE01119601900D924A957C
:1028E000E1F7FE0131967F01A90163E0440F551F16
:1028F0006A95E1F7BA01635F7F4F680F791FF0E0D7
:10290000E0E0D7011D917D0111110FC0E40FF51F0B
:10291000E80FF91F480F591F60E2DF01A41BB50B38
:10292000179754F465873196F8CFDB011D93BD01ED
:102930003196E730F10529F72F5F3F4FFC012283E5
:1029400033836296CDBFDEBFDF91CF911F91FF90A1
:10295000EF900895EF92FF920F931F93CF93DF9321
:10296000EC01CB01F42EE22E20E831EA28833983F2
:102970001A821B82FE013C969E01245B3F4F40E27F
:102980004193E217F307E1F71082BE016C5F7F4FBE
:1029900048E050E00E9406138E010F511F4FF801CE
:1029A000F082CE51DF4FE88261E070E08F2D0E940F
:1029B000E50670E060E0F8018081DF91CF911F9122
:1029C0000F91FF90EF900C94E00608950895CF9337
:1029D000DF932091B42B3091B52B2F3F320739F084
:1029E00090915A29911106C081E080935A29DF9174
:1029F000CF910895220F331FF901E954F44DA081BE
:102A0000B18160917C2970917D2992E1969F90011E
:102A1000979F300D11242A0F3B1FF901EF59FF4FEB
:102A200040815181882349F14130510501F33497A8
:102A30001816BCF480819181255A3F4FE901288105
:102A40003981821793071CF4019680839183ED915D
:102A5000FC9111970680F781E02DCD01DF91CF9198
:102A6000099480819181275A3F4FE901288139815A
:102A70002817390764F70197E8CF4130510539F736
:102A8000F901E35AFF4F80819181481B590B408324
:102A90005183DDCF80E00C94E71420915B293091C5
:102AA0005C291816F4F42F5F3F4F20935B29309375
:102AB0005C292091B42B3091B52B80915B299091AA
:102AC0005C292F3F320781F46091712B7091722B3A
:102AD000860F971F0E943C2C80935B2990935C2962
:102AE000089521503109E1CF220F331FF901E95434
:102AF000F44D0190F081E02D62817381860F971F64
:102B00000E943C2C80935B2990935C2910925A2957
:102B100008958091B42B9091B52B8F3F9807F1F4D5
:102B200080917C2990917D29FC01EE0FFF1FE954D3
:102B3000F44D0190F081E02D22813381232B51F15E
:102B40008093B42B9093B52B10925A2910925B2945
:102B500010925C2981E08093B62B0895880F991F0D
:102B6000FC01E954F44D80819181FC01ED51FF4F4E
:102B70002081222341F08F519F4F70E060E0FC01E3
:102B800080810E94E0068FEF9FEF8093B42B90939B
:102B9000B52BDCCF90E080E0E8CFCF93C62F0E942A
:102BA000640D8FEF9FEF8093B42B9093B52B8C2FF8
:102BB00090E06091712B7091722B0E943C2C80935D
:102BC0007C2990937D29CF910C9489150895CF92FB
:102BD000DF92EF92FF920F931F93CF93DF936C01DD
:102BE000EB017B01E40EF51E10E000E0CE15DF05E1
:102BF00061F06991D601ED91FC910190F081E02D99
:102C0000C6010995080F191FF1CFC801DF91CF91B7
:102C10001F910F91FF90EF90DF90CF900895CF9389
:102C2000DF93FC01E35AFF4F2081318162171306C5
:102C300059F4EC01EC57FF4F70E060E080810E9496
:102C4000E006CD51DF4F1882DF91CF9108956530B6
:102C50007105C9F06630710521F16230710561F5C9
:102C6000FC01EF57FF4F20813181232B29F1ED57D4
:102C7000FF4F108211828F519F4F70E060E0FC0186
:102C800080810C94E006FC01E753FF4F20813181E5
:102C90007297808191812817390774F420833183DA
:102CA0000BC0FC01E954FF4F208131817296808175
:102CB00091818217930794F308950F931F93CF93F5
:102CC000DF938C01D62FC72F70E060E08AE00E946E
:102CD0006E06012BE1F4C0630000C093C40880912C
:102CE000C30887FFFCCF8091C4080000D093C408BC
:102CF0008091C30887FFFCCF8091C40861E070E039
:102D00008AE0DF91CF911F910F910C946E06C06BFA
:102D10000000C093C4088091C30887FFFCCFE3CFB5
:102D2000AF92BF92CF92DF92EF92FF920F931F93D9
:102D3000CF93DF93CDB7DEB76297CDBFDEBF8C01F7
:102D4000E22E0E94AA1483EE90EAF8018083918318
:102D5000F12C48E050E0BE016F5F7F4F87E392EABD
:102D60000E94061319861A8680E1C82ED12CCB86C4
:102D7000DC86ED86FE86EF86F88A92E0A92EB12CDD
:102D8000A98ABA8A2DB73EB7225131092DBF3EBF5D
:102D9000ADB7BEB7119682E1FE01319601900D925A
:102DA0008A95E1F7C8010E94461448E050E0BE0150
:102DB0006F5F7F4F82ED91EA0E940613EE24E39449
:102DC000F12CE986FA86CB86DC86CD86DE86CF8638
:102DD000D88A198A1A8A8DB79EB742978DBF9EBF2F
:102DE000ADB7BEB7119682E1FE01319601900D920A
:102DF0008A95E1F7C8010E944614CDBFDEBF48E0C6
:102E000050E0BE016F5F7F4F89ED91EA0E9406138B
:102E100019861A86CB86DC8684E090E08D879E87B3
:102E20008F87988B198A1A8A2DB73EB7225131099C
:102E30002DBF3EBFADB7BEB7119682E1FE01319600
:102E400001900D928A95E1F7C8010E94461448E06E
:102E500050E0BE016F5F7F4F8FED91EA0E94061335
:102E600019861A86CB86DC861D861E861F86188AE2
:102E7000198A1A8A8DB79EB742978DBF9EBFADB78C
:102E8000BEB7119682E1FE01319601900D928A95AE
:102E9000E1F7C8010E944614CDBFDEBF48E050E014
:102EA000BE016F5F7F4F85EE91EA0E94061319867F
:102EB0001A86EB86FC861D861E861F86188AE98A7E
:102EC000FA8A2DB73EB7225131092DBF3EBFADB7AB
:102ED000BEB7119682E1FE01319601900D928A955E
:102EE000E1F7C8010E94461448E050E0BE016F5F60
:102EF0007F4F8CEE91EA0E94061319861A86EB86A4
:102F0000FC861D861E861F86188AE98AFA8A8DB776
:102F10009EB742978DBF9EBFADB7BEB7119682E1F7
:102F2000FE01319601900D928A95E1F7C8010E9449
:102F30004614CDBFDEBF48E050E0BE016F5F7F4F5B
:102F400084E092EA0E940613E986FA8685E090E022
:102F50008B879C87AD86BE86AF86B88A33E0E32E2A
:102F6000F12CE98AFA8A2DB73EB7225131092DBFDB
:102F70003EBFADB7BEB7119682E1FE01319601901A
:102F80000D928A95E1F7C8010E94461448E050E08E
:102F9000BE016F5F7F4F83EF91EA0E94061319868F
:102FA0001A8686E090E08B879C87ED86FE86EF860A
:102FB000F88A898B9A8B8DB79EB742978DBF9EBF3B
:102FC000ADB7BEB7119682E1FE01319601900D9228
:102FD0008A95E1F7C8010E944614F801EC51FF4FB1
:102FE000C8018C5B9E4FCDBFDEBF1192E817F90779
:102FF000E1F7F801ED51FF4F10826296CDBFDEBFC1
:10300000DF91CF911F910F91FF90EF90DF90CF90C4
:10301000BF90AF900895AF92BF92CF92DF92EF92A0
:10302000FF920F931F93CF93DF93EC01C0905D2924
:10303000D0905E29E0905F29F0906029FC01E15971
:10304000FF4F8081918146E0489F9001499F300D5C
:103050001124032E000C440B550BC701B6010E942E
:10306000072A6C0F7D1F5B0184EEA80EB11CF501D1
:10307000808190E0FE01E753FF4F208131818E0176
:10308000035B1F4F82179307F4F172962081318101
:1030900028173907C4F1369661E070E080810E94FC
:1030A000E006C954DF4FF50160818881680F6D33F8
:1030B00008F06C5070E090E080E00E94E22A20E08E
:1030C00030EF4FE755E40E946E2B20E030E040E700
:1030D00052E40E94382A0E94DB2B0E94AA2A81E037
:1030E00090E00E945D16F801C082D182E282F382F4
:1030F000DF91CF911F910F91FF90EF90DF90CF90D4
:10310000BF90AF900895F80180819181C81AD90AC3
:10311000FE01EB55FF4F80819181C816D90641F71A
:10312000CF51DF4F70E060E08881DF91CF911F9138
:103130000F91FF90EF90DF90CF90BF90AF900C94E5
:10314000E0061F93CF93DF93FC01E35AFF4F2081EA
:1031500031816217130609F04FC04D3308F04CC09F
:10316000142FEC01642F70E090E080E00E94E22ACE
:1031700020E030EF4FE755E40E946E2B20E030E076
:1031800040E752E40E94382A0E94DB2B0E94AA2AC0
:1031900081E090E00E945D16FE01EF51FF4F61E07B
:1031A00070E080810E94E006FE01EF57FF4F8081B2
:1031B0009181892BE9F072978081918146E0489F47
:1031C0009001499F300D1124032E000C440B550B28
:1031D00060915D2970915E2980915F2990916029AD
:1031E0000E94072A6C0F7D1F6C517F4FFB011083DB
:1031F000CD51DF4F81E08883DF91CF911F910895FA
:103200000F931F93CF93DF93CDB7DEB72A97CDBF30
:10321000DEBF8C018AE0ECEAF0EADE011196019053
:103220000D928A95E1F70E94C52966E070E00E9440
:103230003C2CF801E552FF4F208131818217930722
:10324000CCF40E94C52965E070E00E943C2CFC0192
:10325000EE0FFF1F81E090E08C0F9D1FE80FF91F1C
:10326000808191812A96CDBFDEBFDF91CF911F91E2
:103270000F91089590E080E0F5CF8F929F92AF92EA
:10328000BF92CF92DF92EF92FF920F931F93CF9353
:10329000DF93EC01FC01E159FF4F80819181892B83
:1032A00009F080C0EB56FF4F008111810115110517
:1032B00009F478C0C0905D29D0905E29E0905F2924
:1032C000F0906029C701B60126E030E040E050E010
:1032D0000E94072A49015A01672B682B692B09F0C4
:1032E0006EC09801110F440B550BC501B4010E942B
:1032F000072A6E587F4F660F771FFE01E60FF71FF4
:1033000000811181FE01E954FF4F808191810817EE
:1033100019070CF447C0729680819181081719072C
:103320000CF040C0789661E070E080810E94E00679
:10333000045C1F4FFE01EB55FF4F80819181080F08
:10334000191FCE010E940019800F911F6CE370E0DD
:103350000E943C2CBC01990F880B990B0E94E22A19
:1033600020E030EF4FE755E40E946E2B20E030E084
:1033700040E752E40E94382A0E94DB2B0E94AA2ACE
:1033800090E080E00E945D16C35BDF4F80915D2975
:1033900090915E29A0915F29B091602988839983DB
:1033A000AA83BB83DF91CF911F910F91FF90EF9084
:1033B000DF90CF90BF90AF909F908F900895FE01C7
:1033C000E35BFF4F80819181C81AD90AEA5BFF4F06
:1033D00080819181C816D90629F7CF51DF4F70E05F
:1033E00060E08881DF91CF911F910F91FF90EF9066
:1033F000DF90CF90BF90AF909F908F900C94E0069D
:103400000F931F93CF93DF93FC01E35AFF4F20816B
:1034100031816217130609F062C04D3308F05FC0B6
:10342000042F10E0E65AFF4F208131810217130765
:103430000CF455C0EC01BA9661E070E080810E9406
:10344000E006FE01E159FF4F80819181892BA9F0AF
:10345000DE01AC5FBE4F8D919C911197803191053B
:1034600064F4FC01EE58FF4FEE0FFF1FEC0FFD1F41
:103470000083118301968D939C93045C1F4FFE0182
:10348000EB55FF4F80819181080F191FCE010E94DB
:103490000019800F911F6CE370E00E943C2CBC016E
:1034A0007727072E000C880B990B0E94E22A20E058
:1034B00030EF4FE755E40E946E2B20E030E040E70C
:1034C00052E40E94382A0E94DB2B0E94AA2A90E034
:1034D00080E00E945D16CD51DF4F81E08883DF914F
:1034E000CF911F910F9108951F920F920FB60F92D7
:1034F00011242F933F934F935F936F937F938F93F9
:103500009F93AF93BF93409170295091712960911F
:1035100072297091732980916E2990916F29209161
:103520006C2930916D29420F531F611D711D20912F
:103530006A2930916B29820F931F883E23E09207FE
:1035400030F0885E93404F5F5F4F6F4F7F4F8093A7
:103550006E2990936F29409370295093712960933D
:103560007229709373298091782990917929A0917B
:103570007A29B0917B290196A11DB11D80937829EC
:1035800090937929A0937A29B0937B2981E0809345
:10359000860ABF91AF919F918F917F916F915F91BB
:1035A0004F913F912F910F900FBE0F901F90189544
:1035B0001F920F920FB60F9211242F933F934F93A8
:1035C0005F936F937F938F939F93AF93BF93EF938B
:1035D000FF938CE99AE20E943805FF91EF91BF9129
:1035E000AF919F918F917F916F915F914F913F919B
:1035F0002F910F900FBE0F901F9018951F920F9252
:103600000FB60F9211242F938F939F93EF93FF93F5
:10361000E091A82AF091A92A818181FD1BC09081A7
:103620008091AE2A8F5F8F732091AF2A821741F06D
:10363000E091AE2AF0E0E456F54D918F8093AE2AEA
:10364000FF91EF919F918F912F910F900FBE0F904F
:103650001F9018958081F4CF1F920F920FB60F9292
:1036600011242F933F934F935F936F937F938F9387
:103670009F93AF93BF93CF93EF93FF93C091AB080A
:10368000C2FF0AC010924D2910924C2910924B296A
:1036900084E00E94700814C0C6FF2FC080914A29A0
:1036A000813051F480914D29E0914829F0914929C8
:1036B00090E0099510924A29C0FF14C00E9480082A
:1036C000FF91EF91CF91BF91AF919F918F917F919A
:1036D0006F915F914F913F912F910F900FBE0F907F
:1036E0001F90189580E48093AB0881E00E947008D9
:1036F0008091AB0885FFE4CFE1CFC7FF5CC0C3FF7B
:1037000008C010924D2910924C2910924B2983E049
:10371000C0CF8091A90880668093A9088091AB08EA
:1037200081FF2CC080914C29882349F08091AB08FF
:1037300084FF05C082E08093AA0881E0AACF90911F
:103740004C2980914B299817A8F4E0914C2980913D
:10375000432990914429E80FF92FF11D808180932E
:10376000AD0880914C298F5F80934C2983E0809332
:10377000AA08A6CF82E08093AA088BCF90914D290A
:1037800080914729981790F48091AD08E0914D29D8
:103790002091452930914629E20FF32FF11D8083B6
:1037A00080914D298F5F80934D29E0CF86E08093F3
:1037B000AA0882E06ECF85E06CCF1F920F920FB601
:1037C0000F9211242F933F938F939F93EF93FF9327
:1037D0008091A508982F9C70E1F08091A50894E055
:1037E00082FF93E0909358298093A50881E090E0B0
:1037F00080934E2990934F2910925929FF91EF9170
:103800009F918F913F912F910F900FBE0F901F901E
:10381000189586FF4EC0209155299091542980918A
:10382000A50884FF15C080915129882379F083E091
:103830008093A40885E0809358291092592981E04B
:1038400090E080934E2990934F29D8CF81E0F0CF1C
:1038500080915329821790F4E09153298091562941
:1038600090915729E80FF92FF11D80818093A808C6
:10387000809153298F5F80935329C0CF8091522923
:10388000891760F484E090E080934E2990934F294B
:103890008091502981608093A708B0CF80915129F1
:1038A000882329F083E08093A40881E0C4CF81E0DD
:1038B000FACF87FF40C090915229809154299817E0
:1038C000D8F48091A808E0915229209141293091A3
:1038D0004229E20FF32FF11D8083809152298F5FDF
:1038E0008093522990915429809152298917D8F4B4
:1038F00082E08093A40882CF80915129882389F0A7
:1039000087E08093A40882E0809358291092592977
:1039100081E090E080934E2990934F291092542992
:103920006DCF85E0EECF80915129882311F087E09B
:10393000BACF85E0B8CF86E07ECFCF92DF92FF92FC
:103940000F931F93CF93DF936C01162FF42E022F4A
:1039500062E070E0812F0E94E50662E070E08F2D4A
:103960000E94E50662E070E0802F0E94E50680E399
:1039700090E00E94562CEC0187E08B8393E09C83BF
:103980008D831E8281E08F8382E3888788EE93E0B7
:1039900089879A878AEF90E08B879C871D861E8691
:1039A0001F86188A198E1A8E1B8E1C8E1D8E1E8ED7
:1039B0001F8E18A219A21AA21BA21CA21DA21EA22F
:1039C0001FA218A619A61AA61BA61CA61DA61EA6EF
:1039D0001FA61883F9820A8362E070E0812F0E949B
:1039E000E50662E070E089810E94E50662E070E031
:1039F0008A810E94E506F601C083D183DF91CF91D1
:103A00001F910F91FF90DF90CF900895CF93DF9398
:103A100010929E2A10929F2A88EE93E0A0E0B0E0D8
:103A20008093A02A9093A12AA093A22AB093A32ABC
:103A30004EE851EA40939C2A50939D2A40E458E076
:103A40004093A82A5093A92A1092AA2A41E04093B1
:103A5000AB2A1092AC2A1092AE2A1092AF2A109282
:103A6000B02A1092B12A40E24093B22A1092B32AAF
:103A70001092B42A10928029109281298093822971
:103A800090938329A0938429B093852988EA91EAA9
:103A900080937E2990937F2940910028509101289E
:103AA0006091022870910328769567955795479500
:103AB00080E0413099E059079DE36907710540F0C6
:103AC00076956795579547958F5F863091F787E094
:103AD00094E09093CB29982F9095292F217030E076
:103AE00094E0220F331F9A95E1F78162822B809335
:103AF000CA2910928F2981E080938E298CE08093CF
:103B00008A298DE080938C298BE080938B298AE031
:103B100080938D298CE99AE28093352B9093362BF4
:103B20001092CC291092CD291092CE291092CF2933
:103B30001092D0291092D1291092D2291092D32913
:103B40001092D4291092D5291092D6291092D729F3
:103B50001092D8291092D9291092DA291092DB29D3
:103B60001092DC291092DD291092DE291092DF29B3
:103B70001092E0291092E1291092E2291092E32993
:103B80001092E4291092E5291092E6291092E72973
:103B90001092E8291092E9291092EA291092EB2953
:103BA0001092EC291092ED291092EE291092EF2933
:103BB0001092F0291092F1291092F2291092F32913
:103BC0001092F4291092F52985E39BE28093F6295F
:103BD0009093F7291092F8291092F9291092FA2956
:103BE0001092FE291092FF291092002A1092012AA9
:103BF0008FEF9FEF8093022A9093032A8093042AE9
:103C00009093052A83E08093062A1092072A109247
:103C1000082A1092092A10920A2A10928B2AEBE0A5
:103C2000FAE280E8DF011D928A95E9F710928E2A68
:103C300010928F2A1092902A1092912A1092922A12
:103C40001092932A1092942A1092952A1092962AF2
:103C50001092972A1092982A1092992A10929A2AD2
:103C600010929B2A1092392B10923A2B10926F2BA4
:103C70001092702B8EEC91EA8093372B9093382B17
:103C800010923B2B10923C2B1092502B1092532BE6
:103C90001092472B1092482B1092492B10924A2BCE
:103CA0008FEF8093512B8093552BE9E5FBE2CFEF0B
:103CB000C193BBE2EF36FB07D9F781E09BE080932D
:103CC0003F2B9093402B86EF9BE08093412B90936A
:103CD000422B82E89DE08093432B9093442B8CEC05
:103CE0009DE08093452B9093462B30E020E040E010
:103CF00069E08BE39BE20E94010BC093642BC093AD
:103D0000652BC093662B86E890E00E94562CFC0140
:103D1000EE57FF4F10821182329620E430E020836C
:103D20003183FC01DC01A05CBF4F20E22193EF0155
:103D3000C05CDF4F2883AE17BF07C1F71C92FC01A0
:103D4000EF57FF4F10828093CB2B9093CC2B29E021
:103D500047E066E089EC9BE20E949D1C21E042E086
:103D600063E087EC9BE20E949D1C8FEF9FEF8093A6
:103D7000B42B9093B52B81E08093B62B1092712BCE
:103D80001092722BE3E7FBE283EB9BE220E22193AC
:103D90008E179F07E1F71092B32BDF91CF91089513
:103DA000CF93DF93CDB7DEB7E497CDBFDEBF88ED0D
:103DB00090E084BF9093610080E094E2A4EFB0E0D3
:103DC0008093002890930128A0930228B0930328A1
:103DD00080910206866080930206809100068160D1
:103DE00080930006809102068F7C8093020680916A
:103DF000A0008F788093A00080910206806180935C
:103E000002061092E205E1E0E093E40583E080938E
:103E1000010A2FEF30E02093260A3093270A80E82A
:103E200090E08093380A9093390A80933A0A9093ED
:103E30003B0A80933C0A90933D0A8BE08093000AF2
:103E40008091E50581608093E5058091E5058260BC
:103E50008093E50547E04093810A9FEF90938C0A99
:103E600080E880938D0AF5E0FF2EF092800A40935F
:103E7000910A90939C0A80939D0AF092900A409335
:103E8000A10A9093AC0A8093AD0AF092A00A80E058
:103E900094E0809376299093772980917629909168
:103EA0007729B9010E94282C609374297093752991
:103EB000809176299091772908EE13E0B8010E944D
:103EC000282C60936C2970936D29809176299091AC
:103ED0007729B8010E94282C80936A2990936B2936
:103EE00020938C0A30938D0A8091850A816080939B
:103EF000850A84E08093800A8091800A81608093A3
:103F0000800A7894E093692984E190E0A0E0B0E031
:103F10008093612990936229A0936329B0936429C7
:103F200010925D2910925E2910925F2910926029EB
:103F3000E0913F2BF091402B30E020E040E06AE040
:103F40008BE39BE209959E012F5F3F4F190188E0AB
:103F5000D9011D928A95E9F7C9010E94C403E09135
:103F60003F2BF091402B30E020E040E06BE08BE312
:103F70009BE2099580E990E080934B2B90934C2B2A
:103F80008FEF9FEF80937C2990937D2910925B297E
:103F900010925C2903EE17E000933D2B10933E2B0B
:103FA00068EF71EA80E00E94110D00933D2B1093A1
:103FB0003E2B60E072EA82E00E94110D00933D2BDF
:103FC00010933E2B69E072EA84E00E94110D84E1B7
:103FD00092EA9F938F9389E192EA9F938F933F9206
:103FE0002F920E94822D00933D2B10933E2BB10106
:103FF00086E00E94110DE6EBF0EADE019596019055
:104000000D92FA94E1F78E010B5D1F4F6E01BAE23B
:10401000CB0ED11C0F900F900F900F900F900F9020
:1040200078010DA71EA761E070E0F70181917F0183
:104030000E94E00664EF71E080E090E00E94A40737
:10404000CE14DF0481F770E060E0D8018D918D011E
:104050000E94E006E016F106B1F788E0F101119246
:104060008A95E9F7C1010E94C40310926F2B109248
:10407000702B84E491E00E94562C8C0121E041E1F8
:104080006DE172EA0E949016C8010E94211384E437
:1040900091E00E94562C8C0122E045E164E272EA34
:1040A0000E949016C8010E94211386E091E00E94B0
:1040B000562C8C0123E048E06BE272EA0E94AA14BD
:1040C00086E591EAD8018D939C9348E050E0B101D8
:1040D00087E392EA0E94061319861A8620E1622E6F
:1040E000712C6B867C8633E0432E512C4D865E8688
:1040F0004F86588A42E0842E912C898A9A8AEDB79D
:10410000FEB77297EDBFFEBFADB7BEB7119682E1A5
:10411000F10101900D928A95E1F7C8010E944614C1
:1041200048E050E0B10185EE91EA0E94061319863D
:104130001A86EE24E394F12CEB86FC861D861E86FF
:104140001F86188AE98AFA8A2DB73EB722513109AB
:104150002DBF3EBFADB7BEB7119682E1F101019010
:104160000D928A95E1F7C8010E944614CDBFDEBFCB
:1041700048E050E0B1018CEE91EA0E9406131986E6
:104180001A86EB86FC861D861E861F86188AE98A9B
:10419000FA8A8DB79EB742978DBF9EBFADB7BEB7A7
:1041A000119682E1F10101900D928A95E1F7C80123
:1041B0000E94461448E050E0B10184E092EA0E9477
:1041C0000613E986FA8665E0A62EB12CAB86BC867E
:1041D0008D869E868F86988A498A5A8AADB7BEB7E1
:1041E0005297ADBFBEBF119682E1F10101900D92D1
:1041F0008A95E1F7C8010E944614CDBFDEBF48E0B2
:1042000050E0B10182E392EA0E94061319861A86F1
:104210002BE030E02B873C871D861E861F86188A80
:1042200044E050E0498B5A8B8DB79EB742978DBFC3
:104230009EBFADB7BEB7119682E1F10101900D921C
:104240008A95E1F7C8010E94461448E050E0B101A8
:1042500086E392EA0E94061319861A867CE3C72E2B
:10426000D12CCB86DC861D861E861F86188AA98ADD
:10427000BA8AADB7BEB75297ADBFBEBF119682E145
:10428000F10101900D928A95E1F7C8010E94461450
:10429000CDBFDEBF48E050E0B1018AE392EA0E9460
:1042A000061319861A86CB86DC86CD86DE86CF86F7
:1042B000D88AA98ABA8A2DB73EB7225131092DBFB3
:1042C0003EBFADB7BEB7119682E1F10101900D92EC
:1042D0008A95E1F7C8010E94461448E050E0B10118
:1042E0008EE392EA0E94061319861A8686E090E011
:1042F0008B879C871D861E861F86188A498A5A8A44
:104300004DB75EB7425151094DBF5EBFADB7BEB7A5
:10431000119682E1F10101900D928A95E1F7C801B1
:104320000E944614F801EC5FFE4F10821182B19793
:104330001082CDBFDEBFC8010E94211384E491E04A
:104340000E94562C8C0124E04EE065E472EA0E9443
:10435000AA1484E691EAD8018D939C9348E050E03A
:10436000B10187E392EA0E94061319861A866B86CA
:104370007C86E4E0F0E0ED87FE87EF87F88B898AA2
:104380009A8A2DB73EB7225131092DBF3EBFADB736
:10439000BEB7119682E1F10101900D928A95E1F785
:1043A000C8010E94461448E050E0B10182ED91EA54
:1043B0000E940613E986FA866B867C866D867E8669
:1043C0006F86788A198A1A8A4DB75EB742515109A9
:1043D0004DBF5EBFADB7BEB7119682E1F10101904E
:1043E0000D928A95E1F7C8010E944614CDBFDEBF49
:1043F00048E050E0B10185EE91EA0E94061319866B
:104400001A86EB86FC861D861E861F86188AE98A18
:10441000FA8AADB7BEB75297ADBFBEBF119682E163
:10442000F10101900D928A95E1F7C8010E944614AE
:1044300048E050E0B1018CEE91EA0E940613198623
:104440001A86EB86FC861D861E861F86188AE98AD8
:10445000FA8AEDB7FEB77297EDBFFEBFADB7BEB734
:10446000119682E1F10101900D928A95E1F7C80160
:104470000E944614CDBFDEBF48E050E0B10184E0A9
:1044800092EA0E940613E986FA86AB86BC868D8680
:104490009E868F86988A498A5A8A4DB75EB742515E
:1044A00051094DBF5EBFADB7BEB7119682E1F101B4
:1044B00001900D928A95E1F7C8010E94461448E0E8
:1044C00050E0B10182E392EA0E94061319861A862F
:1044D0008BE090E08B879C871D861E861F86188A3E
:1044E000A4E0B0E0A98BBA8BEDB7FEB77297EDBF31
:1044F000FEBFADB7BEB7119682E1F10101900D92FA
:104500008A95E1F7C8010E944614CDBFDEBF48E09E
:1045100050E0B10186E392EA0E94061319861A86DA
:10452000CB86DC861D861E861F86188AA98ABA8AD3
:104530004DB75EB7425151094DBF5EBFADB7BEB773
:10454000119682E1F10101900D928A95E1F7C8017F
:104550000E94461448E050E0B1018AE392EA0E94CA
:10456000061319861A86CB86DC86CD86DE86CF8634
:10457000D88AA98ABA8A8DB79EB742978DBF9EBF47
:10458000ADB7BEB7119682E1F10101900D928A9507
:10459000E1F7C8010E944614F801EC51FF4FC80131
:1045A0008C5B9E4FCDBFDEBF2DE32193E817F9074B
:1045B000E1F7F801ED51FF4F1082C8010E9421136D
:1045C00086EE90E00E94562C8C0125E044E16CE4DC
:1045D00072EA0E94AA1482E791EAF801808391832B
:1045E00048E050E0B10187E392EA0E940613198681
:1045F0001A8680E190E08B879C8785E090E08D872C
:104600009E878F87988B82E090E0898B9A8B2DB75D
:104610003EB7225131092DBF3EBFADB7BEB711968F
:1046200082E1F10101900D928A95E1F7C8010E94A3
:104630004614E0906929F12C48E050E0B10181E591
:1046400092EA0E94061319861A86CC24C394D12CB0
:10465000CB86DC86ED86FE86EF86F88AC98ADA8A02
:104660004DB75EB7425151094DBF5EBFADB7BEB742
:10467000119682E1F10101900D928A95E1F7C8014E
:104680000E944614CDBFDEBF48E050E0B10187E58F
:1046900092EA0E9406138EE190E089879A8780EF64
:1046A00090E08B879C8788E790E08D879E878F8737
:1046B000988B198A1A8AADB7BEB75297ADBFBEBFE5
:1046C000119682E1F10101900D928A95E1F7C801FE
:1046D0000E94461448E050E0B1018BE592EA0E9446
:1046E0000613C986DA8694E0E92EF12CEB86FC8667
:1046F000CD86DE86CF86D88A198A1A8AEDB7FEB7AC
:104700007297EDBFFEBFADB7BEB7119682E1F10162
:1047100001900D928A95E1F7C8010E944614CDBF21
:10472000DEBF48E050E0B10180E692EA0E94061345
:10473000C986DA86EB86FC86CD86DE86CF86D88A69
:10474000198A1A8A4DB75EB7425151094DBF5EBFF3
:10475000ADB7BEB7119682E1F10101900D928A9535
:10476000E1F7C8010E944614F801EC51FF4F88E1BF
:1047700090E08083918331971082C8010E942113B9
:10478000E091C72BF091C82B8AE495E182A393A313
:1047900087EE94E1848F958FE091C92BF091CA2B1D
:1047A0008DE495E1848F958F89E895E182A393A3A9
:1047B00080EE97E080A791A7E091F629F091F72984
:1047C00080819181DC01ED91FC910484F585E02DDF
:1047D00042E15AE760E070E009951092F8291092E2
:1047E000FA291092F9291092002A1092012A1092A7
:1047F000FE291092FF298FEF9FEF8093022A90935A
:10480000032A8093042A9093052A0E94D407609378
:104810008E2A70938F2A8093902A9093912A1092D7
:104820008B2A1092082A1092072A1092092A1092B5
:104830000A2A10928C2A10928D2A1092062A88E851
:1048400092E18093E8299093E92982EE92E18093A6
:10485000D2299093D32987EC92E18093D029909329
:10486000D1298DEC95E18093D8299093D92982EABA
:1048700092E18093D6299093D7290E94D407609320
:104880006529709366298093672990936829CDBF25
:10489000DEBF80918F29811117C01092902910924C
:1048A0009129109292291092932910929429109292
:1048B0009529109296291092972910929829109272
:1048C000992981E080938F298091E30590918E2929
:1048D000892B8093E30561E070E080918B290E9431
:1048E000E50661E070E080918C290E94E5068091E8
:1048F000C10884608093C1088091C0088162809360
:10490000C0089091CA298091CB299093C0088093C8
:10491000C10861E070E08AE00E9415069E01245DF6
:104920003F4F2BAB3CABE0E2FE2EF7E2EF2EA4E7CD
:10493000AA2EA2EABA2EB3E84B2EB2EA5B2E8091E1
:10494000C72B9091C82B0E94680E8091C92B909123
:10495000CA2B0E94680E0091CB2B1091CC2B20917A
:104960007C2930917D2960915B2970915C296217C7
:10497000730709F4AFC08091B42B9091B52B0196C9
:10498000D9F1F90173E0EE0FFF1F7A95E1F7D80135
:10499000AE57BF4FCF0101968D939C9311971296FE
:1049A00007968D939C93EE5BFF4FE00FF11F90E015
:1049B00080E062E1629FA001639F500D112420916D
:1049C000B42B3091B52BB0E0A0E02F3F320741F07F
:1049D000220F331FD901A954B44D0D90BC91A02DC5
:1049E000A40FB51FA80FB91FAF5ABF4F2C91219329
:1049F00001968730910519F70E94640D80915B291B
:104A000090915C2980937C2990937D290E94460D8A
:104A1000C090F829B0E1BC1508F417C2E091F6295E
:104A2000F091F72980819181DC01ED91FC91048066
:104A3000F581E02D0995892B09F407C280919B2A05
:104A40008E7F80939B2AE091F629F091F72980814F
:104A50009181DC01ED91FC910680F781E02D0995B3
:104A6000182F8D3F09F4F1C18091002A9091012AFD
:104A7000009709F0E5C21093FB290091F929802FD6
:104A80000E946B120E947912882361F017FD0AC000
:104A90000093FB291093FC2981E090E08093002A89
:104AA0009093012A1091FB29812F0E946B12813F64
:104AB00009F48FC208F026C2803B49F008F0A7C174
:104AC000803929F0803A19F0803809F0A8C123E034
:104AD00030E081C28091B62B8823A9F11092B62BC9
:104AE0000E94460D2091B42B3091B52BC8018F5BED
:104AF0009F4F2F3F3207A9F4A3E7BBE2FC01805C84
:104B00009F4F2D912193E817F907D9F7F801EE5738
:104B1000FF4F10821182329680E490E0808391836F
:104B200077CF220F331FF901E954F44D20813181F1
:104B3000F9013C96DC01245B3F4F81918D932E1748
:104B40003F07D9F7E3CF8091B42B9091B52BF801B3
:104B5000EE57FF4F6F01A8014C575F4F4A018F3F3F
:104B6000980709F487C040915A29442309F482C068
:104B700044E2EBEBF0EAD10101900D924A95E1F7A6
:104B8000FC01EE0FFF1FE954F44D80819181AB01D0
:104B9000B3E0440F551FBA95E1F7FA013196D601FB
:104BA000ED93FC93485F5F4FF40140835183E2E152
:104BB000E69FA001E79F500D1124480F591FFA01ED
:104BC000EF59FF4F608171816330710509F485C031
:104BD000A8F46130710571F16230710509F46CC09F
:104BE00042E1429FF001439FF00D1124E80FF91FAD
:104BF000E35AFF4F81818F93808167C065307105D3
:104C000009F4ABC008F48AC06630710549F7435A0D
:104C10005F4FFA0120813181EDA5FEA590E080E093
:104C2000833091050CF46EC0821793070CF46EC0AC
:104C3000F0826DC0435A5F4FDA018D919C916CE612
:104C400072EA892B11F464E672EA8DA59EA50E9492
:104C50007B2DADA5BEA5F60180819181FC01EF5BA6
:104C6000FF4FE00FF11F8D9181936BA87CA8A615D3
:104C7000B705C9F7D4018D919C91F601208131814E
:104C80002817390709F4C4CED6018D909C90881658
:104C900099060CF081C0F801E80DF91DDF01AF5B4A
:104CA000BF4F30812C9132137BC0BFEF8B1A9B0A10
:104CB000F60180829182E8CF435A5F4FFA018081EA
:104CC0009181009709F4BFCF9F938F93BF92AF92CA
:104CD0006EA46F927DA47F9237C0435A5F4FDA0172
:104CE0002D913C91EDA5FEA590E080E08217930701
:104CF0003CF4E0820196319687309105B9F7A9CF4F
:104D0000F082F8CF821793070CF492CFE0820196DD
:104D100031968730910509F083CF9BCF435A5F4F7F
:104D2000DA012D913C91C901880F991F820F931FC1
:104D3000820D931D9F938F93ECE7F2EAFF93EF931D
:104D40007EA47F926DA46F920E94822D0F900F908F
:104D50000F900F900F900F907CCF435A5F4FDA0166
:104D60008D919C916CE070E00E943C2C7F936F933E
:104D70009C01220F331F820F931F820D931D9F935F
:104D80008F935F924F926EA46F927DA47F920E9448
:104D9000822DCDBFDEBF5DCF8815990509F438CED1
:104DA000F801E80DF91DDF01AF5BBF4F2C912083A7
:104DB000C40160E270E00E943C2C97FD079643E03E
:104DC000959587954A95E1F7482F440FB40197FED2
:104DD00002C0615E7F4F35E0759567953A95E1F7C2
:104DE000362F330F330F330FC40168E070E00E9499
:104DF0003C2C632F680F8BE39BE20E94AD0CD60125
:104E00008D919C91119701968D939C9301CE803D3D
:104E100009F4DFC008F065C0803C09F4DAC0809175
:104E20009B2A816080939B2AE091CE29F091CF2923
:104E3000309709F009951092002A1092012A1092D9
:104E4000FE291092FF291092F9298091692988235F
:104E500009F444C00E94D4076090652970906629C7
:104E600080906729909068296FA678AA89AA9AAA43
:104E70000091612910916229209163293091642960
:104E8000AB01BC01461957096809790904171507D0
:104E90002607370718F5D401C301800F911FA21F01
:104EA000B31F8093652990936629A0936729B093D7
:104EB00068290E94A30380915D2990915E29A091A9
:104EC0005F29B09160290196A11DB11D80935D29D4
:104ED00090935E29A0935F29B09360290E94FE05FC
:104EE0002ECD803E09F4F3CD803F09F098CF20E825
:104EF00030E02093FE293093FF291092F929809306
:104F00000B2A6DC0873F99F308F05CC0833F09F41A
:104F100060C008F4DCCD863F09F081CF8093082A79
:104F20001092072A1092092A10920A2A81E080938F
:104F30008B2A1092002A1092012A1092FE291092B8
:104F4000FF298091082A803939F480910A2A811139
:104F500003C080E88093082A8091082A805881360F
:104F600030F48091072AC81611F0C11002C00E94C7
:104F7000F4039091062A392F317090FF66CF892F64
:104F80008E7F09F462CF8091082A20E8280F21360D
:104F900008F02AC12091072AC21619F031E0C11089
:104FA00030E09695923009F418C1933009F419C194
:104FB000913009F04ACF40910A2A6091092A0E9453
:104FC000321243CF8D3F08F4A9CF8E3F08F0A6CF11
:104FD00026CF22E030E02093FE293093FF29209154
:104FE000002A3091012A4091FE295091FF29415019
:104FF000510924173507E8F08093082A1F701F5FB6
:105000001093072A8091FC298093092A10920A2A7A
:1050100081E090E080938C2A90938D2A1092002A50
:105020001092012A1092FE291092FF2980938B2A58
:1050300088CF2F5F3F4F2093002A3093012A05CF5E
:1050400017FF0CC01D3F08F04BC0183F08F04BC0C5
:10505000103F09F457C0173F09F454C02091FB29B1
:10506000FC01E453F64D203F19F0273F09F073C0CF
:1050700017AF8090FE299090FF29940121503109AB
:105080008217930708F4A7C00091FB29003F19F08D
:10509000073F09F062C010918A2A80EF80938A2A24
:1050A0008093082A80E88093092A10920A2A109295
:1050B000072A80E890E080938C2A90938D2A81E0E3
:1050C00080938B2A0E94F40387EF80930B2A10931E
:1050D0000C2A82E090E08093002A9093012AB5CEBA
:1050E0001E3F08F4BBCF1093082A1092092A109291
:1050F0000A2A1092072A81E090E080938C2A9093EC
:105100008D2A94CF20910B2A203F19F0273F09F0D8
:1051100086CE9C012F5F3F4F8453964DFC0117AF05
:1051200080EF8093082A2093092A30930A2A10924C
:10513000072A20938C2A30938D2A81E080938B2A32
:105140001092002A1092012A1092FE291092FF2933
:105150001092F929F6CE17A78CCF802F0E946B12E0
:10516000182F8093082A0E947912882349F1802FF2
:105170008F708F5F8093072A8091FC298093092A82
:105180008091FD29F3E08F16910409F080E080936F
:105190000A2A1092002A1092012A1092FE291092D7
:1051A000FF2981E080938B2A103B39F060F410399D
:1051B00021F0103A11F0103859F60093F929C1CEB8
:1051C0001092072AD9CF103DC1F3103EB1F3103C25
:1051D00009F0BECFF2CF01967ECF332309F435CE4E
:1051E000EACE311132CEE7CEE0E1E80FE03108F04F
:1051F0002CCEF0E0E250F74D0C94502C1429652988
:1052000046293429252725270E2925270E29252734
:105210000E290E290E2925270E290E29682F86EF23
:1052200099E20E94241211CEC090092AD0900A2A35
:1052300021E8C216D10418F090E8C92ED12C0CEC4C
:1052400019E2C8018C5C99428C159D0508F0FDCDD2
:10525000D801DF966C918091F6299091F7290E94F0
:105260001A120F5F1F4FEDCF1091092A63EF809143
:10527000F6299091F7290E941A12612F6F77809179
:10528000F6299091F7290E941A12DFCD00910A2A7F
:10529000B0E80B9F800111248091092A082B62EF4E
:1052A0008091F6299091F7290E941A12602F6F774A
:1052B0008091F6299091F7290E941A12000F012F70
:1052C000001F110B1195602FD9CF8091092AE0E1C1
:1052D0008E9FC0011124807710910A2A1F70182B0D
:1052E00061EF8091F6299091F7290E941A12612F9F
:1052F000C6CF8F929F92AF92BF92CF92DF92EF92E2
:10530000FF92CF93DF93EC01688179818A819B8141
:10531000611571058105910521F464E279ED8BE554
:1053200097E02DE133EF41E050E00E94D52949019B
:105330005A019B01AC01A7EAB1E40E94F4296B0178
:105340007C01ACEEB4EFA50194010E94022ADC01BD
:10535000CB018C0D9D1DAE1DBF1DB7FF03C0019776
:10536000A109B04888839983AA83BB839F77DF9183
:10537000CF91FF90EF90DF90CF90BF90AF909F9034
:105380008F9008950E947929089584E098E20E9400
:1053900079290895B0E0A0E080930428909305282F
:1053A000A0930628B09307280895052E97FB1EF4B6
:1053B00000940E94EC2957FD07D00E94072A07FCA1
:1053C00003D04EF40C94EC295095409530952195DE
:1053D0003F4F4F4F5F4F0895909580957095619521
:1053E0007F4F8F4F9F4F08950E94292AA59F900DB0
:1053F000B49F900DA49F800D911D11240895B7FFB7
:105400000C94F4290E94F429821B930B0895A1E2C5
:105410001A2EAA1BBB1BFD010DC0AA1FBB1FEE1F2E
:10542000FF1FA217B307E407F50720F0A21BB30B79
:10543000E40BF50B661F771F881F991F1A9469F7F5
:1054400060957095809590959B01AC01BD01CF0151
:105450000895A29FB001B39FC001A39F700D811D4D
:105460001124911DB29F700D811D1124911D08956D
:105470000E944C2A0C94342B0E942D2B58F00E9431
:10548000262B40F029F45F3F29F00C941D2B51117D
:105490000C94682B0C94232B0E94452B68F39923C2
:1054A000B1F3552391F3951B550BBB27AA27621720
:1054B0007307840738F09F5F5F4F220F331F441F2D
:1054C000AA1FA9F335D00E2E3AF0E0E832D0915061
:1054D0005040E695001CCAF72BD0FE2F29D0660F4E
:1054E000771F881FBB1F261737074807AB07B0E891
:1054F00009F0BB0B802DBF01FF2793585F4F3AF097
:105500009E3F510578F00C941D2B0C94682B5F3F47
:10551000E4F3983ED4F3869577956795B795F7951C
:105520009F5FC9F7880F911D9695879597F9089504
:10553000E1E0660F771F881FBB1F621773078407A0
:10554000BA0720F0621B730B840BBA0BEE1F88F7AF
:10555000E09508950E94B12A6894B1110C94682BCB
:1055600008950E944D2B88F09F5798F0B92F9927E6
:10557000B751B0F0E1F0660F771F881F991F1AF03E
:10558000BA95C9F714C0B13091F00E94672BB1E011
:1055900008950C94672B672F782F8827B85F39F010
:1055A000B93FCCF3869577956795B395D9F73EF4D7
:1055B00090958095709561957F4F8F4F9F4F08957F
:1055C000E89409C097FB3EF490958095709561959D
:1055D0007F4F8F4F9F4F9923A9F0F92F96E9BB2753
:1055E0009395F695879577956795B795F111F8CFCF
:1055F000FAF4BB0F11F460FF1BC06F5F7F4F8F4F3A
:105600009F4F16C0882311F096E911C0772321F02F
:105610009EE8872F762F05C0662371F096E8862FC7
:1056200070E060E02AF09A95660F771F881FDAF71E
:10563000880F9695879597F9089597F99F6780E861
:1056400070E060E008959FEF80EC089500240A94D4
:105650001616170618060906089500240A9412164D
:105660001306140605060895092E0394000C11F480
:10567000882352F0BB0F40F4BF2B11F460FF04C02D
:105680006F5F7F4F8F4F9F4F089557FD9058440F86
:10569000551F59F05F3F71F04795880F97FB991F91
:1056A00061F09F3F79F0879508951216130614064E
:1056B000551FF2CF4695F1DF08C0161617061806DB
:1056C000991FF1CF86957105610508940895E894B6
:1056D000BB2766277727CB0197F908950E94812B76
:1056E0000C94342B0E94262B38F00E942D2B20F096
:1056F000952311F00C941D2B0C94232B11240C9446
:10570000682B0E94452B70F3959FC1F3950F50E0D5
:10571000551F629FF001729FBB27F00DB11D639F63
:10572000AA27F00DB11DAA1F649F6627B00DA11D09
:10573000661F829F2227B00DA11D621F739FB00DAF
:10574000A11D621F839FA00D611D221F749F33271F
:10575000A00D611D231F849F600D211D822F762FB8
:105760006A2F11249F5750409AF0F1F088234AF095
:10577000EE0FFF1FBB1F661F771F881F9150504001
:10578000A9F79E3F510580F00C941D2B0C94682BBB
:105790005F3FE4F3983ED4F3869577956795B79588
:1057A000F795E7959F5FC1F7FE2B880F911D9695A2
:1057B000879597F908950E944D2BE8F09E37E8F001
:1057C0009639B8F49E3848F4672F782F8827985F69
:1057D000F9CF86957795679593959539D0F3B62F40
:1057E000B1706B0F711D811D20F4879577956795BA
:1057F00093950C94FF2B0C941A2C0C94682B8823F3
:1058000071F4772321F09850872B762F07C06623F9
:1058100011F499270DC09051862B70E060E02AF0BA
:105820009A95660F771F881FDAF7880F96958795E8
:1058300097F908959F3F31F0915020F4879577951F
:105840006795B795880F911D9695879597F9089557
:10585000AA1BBB1B51E107C0AA1FBB1FA617B70796
:1058600010F0A61BB70B881F991F5A95A9F78095B2
:105870009095BC01CD01089597FB072E16F4009476
:1058800007D077FD09D00E94282C07FC05D03EF4F4
:10589000909581959F4F0895709561957F4F0895DC
:1058A000EE0FFF1F0590F491E02D09940F931F93C5
:1058B000CF93DF938230910510F482E090E0E09185
:1058C000CF2BF091D02B30E020E0B0E0A0E030977B
:1058D00099F42115310509F44AC0281B390B2430ED
:1058E0003105D8F58A819B816115710589F1FB012C
:1058F00082839383FE0111C0408151810281138113
:1059000048175907E0F04817590799F4109761F0C4
:1059100012960C93129713961C933296CF01DF9137
:10592000CF911F910F9108950093CF2B1093D02BFF
:10593000F4CF2115310551F04217530738F0A90172
:10594000DB019A01BD01DF01F801C1CFEF01F9CF01
:105950008093CF2B9093D02BCDCFFE01E20FF31F7E
:10596000819391932250310928833983D7CF209195
:10597000CD2B3091CE2B232B41F420910A2830914E
:105980000B282093CD2B3093CE2B209108283091DB
:1059900009282115310541F42DB73EB740910C2857
:1059A00050910D28241B350BE091CD2BF091CE2B7F
:1059B000E217F307A0F42E1B3F0B2817390778F0E6
:1059C000AC014E5F5F4F2417350748F04E0F5F1F45
:1059D0004093CD2B5093CE2B819391939FCFF0E0AA
:1059E000E0E09CCFCF93DF930097E9F0FC01329782
:1059F00012821382A091CF2BB091D02BED0130E019
:105A000020E01097A1F420813181820F931F209113
:105A1000CD2B3091CE2B2817390709F061C0E093C8
:105A2000CD2BF093CE2BDF91CF910895EA01CE17C5
:105A3000DF07E8F54A815B819E0141155105B1F709
:105A4000E901EA83FB8349915991C40FD51FEC17F3
:105A5000FD0761F4808191810296840F951FE90111
:105A600088839983828193818A839B83F0E0E0E03D
:105A700012968D919C9113970097B9F52D913C91B9
:105A80001197CD010296820F931F2091CD2B30915B
:105A9000CE2B2817390739F6309751F51092CF2BB6
:105AA0001092D02BA093CD2BB093CE2BBCCFC28322
:105AB000D38340815181840F951FC817D90761F4A2
:105AC0004E5F5F4F88819981480F591F40835183F2
:105AD0008A819B81828393832115310509F0B0CFA0
